{
  "contractName": "CentralizedAppealableArbitrationService",
  "abi": [
    {
      "constant": true,
      "inputs": [
        {
          "name": "",
          "type": "address"
        },
        {
          "name": "",
          "type": "uint256"
        }
      ],
      "name": "disputesMap",
      "outputs": [
        {
          "name": "choices",
          "type": "uint256"
        },
        {
          "name": "ruling",
          "type": "uint256"
        },
        {
          "name": "status",
          "type": "uint8"
        },
        {
          "name": "feeTotal",
          "type": "uint256"
        },
        {
          "name": "appealTimeout",
          "type": "uint256"
        }
      ],
      "payable": false,
      "stateMutability": "view",
      "type": "function"
    },
    {
      "constant": true,
      "inputs": [],
      "name": "owner",
      "outputs": [
        {
          "name": "",
          "type": "address"
        }
      ],
      "payable": false,
      "stateMutability": "view",
      "type": "function"
    },
    {
      "inputs": [],
      "payable": false,
      "stateMutability": "nonpayable",
      "type": "constructor"
    },
    {
      "payable": true,
      "stateMutability": "payable",
      "type": "fallback"
    },
    {
      "anonymous": false,
      "inputs": [
        {
          "indexed": true,
          "name": "_arbitrated",
          "type": "address"
        },
        {
          "indexed": true,
          "name": "_disputeID",
          "type": "uint256"
        },
        {
          "indexed": false,
          "name": "_feesOwed",
          "type": "bool"
        }
      ],
      "name": "DisputeCreated",
      "type": "event"
    },
    {
      "anonymous": false,
      "inputs": [
        {
          "indexed": true,
          "name": "_arbitrated",
          "type": "address"
        },
        {
          "indexed": true,
          "name": "_disputeID",
          "type": "uint256"
        }
      ],
      "name": "ArbitrationFeesPaid",
      "type": "event"
    },
    {
      "anonymous": false,
      "inputs": [
        {
          "indexed": true,
          "name": "_arbitrated",
          "type": "address"
        },
        {
          "indexed": true,
          "name": "_disputeID",
          "type": "uint256"
        },
        {
          "indexed": false,
          "name": "_ruling",
          "type": "uint32"
        },
        {
          "indexed": false,
          "name": "_appealable",
          "type": "bool"
        }
      ],
      "name": "Ruling",
      "type": "event"
    },
    {
      "anonymous": false,
      "inputs": [
        {
          "indexed": true,
          "name": "_arbitrated",
          "type": "address"
        },
        {
          "indexed": true,
          "name": "_disputeID",
          "type": "uint256"
        },
        {
          "indexed": false,
          "name": "_party",
          "type": "address"
        },
        {
          "indexed": false,
          "name": "_evidenceJSON",
          "type": "string"
        }
      ],
      "name": "Evidence",
      "type": "event"
    },
    {
      "constant": false,
      "inputs": [
        {
          "name": "_fee",
          "type": "uint256"
        }
      ],
      "name": "setArbitrationFee",
      "outputs": [],
      "payable": false,
      "stateMutability": "nonpayable",
      "type": "function"
    },
    {
      "constant": true,
      "inputs": [
        {
          "name": "_disputeID",
          "type": "uint256"
        },
        {
          "name": "_choices",
          "type": "uint32"
        },
        {
          "name": "_parties",
          "type": "address[]"
        },
        {
          "name": "_extraData",
          "type": "uint256[]"
        }
      ],
      "name": "upfrontCost",
      "outputs": [
        {
          "name": "fee",
          "type": "uint256"
        }
      ],
      "payable": false,
      "stateMutability": "view",
      "type": "function"
    },
    {
      "constant": false,
      "inputs": [
        {
          "name": "_disputeID",
          "type": "uint256"
        },
        {
          "name": "_choices",
          "type": "uint32"
        },
        {
          "name": "_parties",
          "type": "address[]"
        },
        {
          "name": "_extraData",
          "type": "uint256[]"
        }
      ],
      "name": "createDispute",
      "outputs": [],
      "payable": true,
      "stateMutability": "payable",
      "type": "function"
    },
    {
      "constant": false,
      "inputs": [
        {
          "name": "_arbitrated",
          "type": "address"
        },
        {
          "name": "_disputeID",
          "type": "uint256"
        },
        {
          "name": "_ruling",
          "type": "uint32"
        }
      ],
      "name": "giveAppealableRuling",
      "outputs": [],
      "payable": false,
      "stateMutability": "nonpayable",
      "type": "function"
    },
    {
      "constant": false,
      "inputs": [
        {
          "name": "_arbitrated",
          "type": "address"
        },
        {
          "name": "_disputeID",
          "type": "uint256"
        },
        {
          "name": "_ruling",
          "type": "uint32"
        }
      ],
      "name": "giveFinalRuling",
      "outputs": [],
      "payable": false,
      "stateMutability": "nonpayable",
      "type": "function"
    },
    {
      "constant": true,
      "inputs": [
        {
          "name": "_arbitrated",
          "type": "address"
        },
        {
          "name": "_disputeID",
          "type": "uint256"
        }
      ],
      "name": "disputeStatus",
      "outputs": [
        {
          "name": "status",
          "type": "uint8"
        },
        {
          "name": "ruling",
          "type": "uint256"
        }
      ],
      "payable": false,
      "stateMutability": "view",
      "type": "function"
    },
    {
      "constant": false,
      "inputs": [
        {
          "name": "_arbitrated",
          "type": "address"
        },
        {
          "name": "_disputeID",
          "type": "uint256"
        },
        {
          "name": "_evidenceJSON",
          "type": "string"
        }
      ],
      "name": "submitEvidence",
      "outputs": [],
      "payable": false,
      "stateMutability": "nonpayable",
      "type": "function"
    },
    {
      "constant": true,
      "inputs": [
        {
          "name": "_arbitrated",
          "type": "address"
        },
        {
          "name": "_disputeID",
          "type": "uint256"
        }
      ],
      "name": "appealInfo",
      "outputs": [
        {
          "name": "appealable",
          "type": "bool"
        },
        {
          "name": "fee",
          "type": "uint256"
        },
        {
          "name": "untilTimestamp",
          "type": "uint256"
        }
      ],
      "payable": false,
      "stateMutability": "view",
      "type": "function"
    },
    {
      "constant": false,
      "inputs": [
        {
          "name": "_arbitrated",
          "type": "address"
        },
        {
          "name": "_disputeID",
          "type": "uint256"
        }
      ],
      "name": "startAppeal",
      "outputs": [],
      "payable": true,
      "stateMutability": "payable",
      "type": "function"
    }
  ],
  "bytecode": "0x608060405260008054600160a060020a0319163317905566b1a2bc2ec5000060015534801561002d57600080fd5b506112bb8061003d6000396000f3006080604052600436106100ae5763ffffffff7c01000000000000000000000000000000000000000000000000000000006000350416631147332081146100fe57806327754b241461014d5780635e021908146101fc5780635ea7b4fc146102675780636f73b3301461027f5780637ad31965146102ac5780638da5cb5b146103105780638f798fe714610341578063da90eff8146103d1578063e3b0df1d14610415578063ff9ec8c014610442575b6040805160e560020a62461bcd02815260206004820152601960248201527f496e76616c69642063616c6c20746f20636f6e74726163742e00000000000000604482015290519081900360640190fd5b34801561010a57600080fd5b50610122600160a060020a0360043516602435610459565b6040518083600381111561013257fe5b60ff1681526020018281526020019250505060405180910390f35b34801561015957600080fd5b5060408051602060046044358181013583810280860185019096528085526101ea958335956024803563ffffffff1696369695606495939492019291829185019084908082843750506040805187358901803560208181028481018201909552818452989b9a99890198929750908201955093508392508501908490808284375094975061048f9650505050505050565b60408051918252519081900360200190f35b34801561020857600080fd5b50604080516020600460443581810135601f8101849004840285018401909552848452610265948235600160a060020a031694602480359536959460649492019190819084018382808284375094975061049a9650505050505050565b005b34801561027357600080fd5b506102656004356106d6565b34801561028b57600080fd5b50610265600160a060020a036004351660243563ffffffff60443516610763565b3480156102b857600080fd5b506102d0600160a060020a0360043516602435610a9c565b604051808681526020018581526020018460038111156102ec57fe5b60ff1681526020018381526020018281526020019550505050505060405180910390f35b34801561031c57600080fd5b50610325610ad9565b60408051600160a060020a039092168252519081900360200190f35b6040805160206004604435818101358381028086018501909652808552610265958335956024803563ffffffff1696369695606495939492019291829185019084908082843750506040805187358901803560208181028481018201909552818452989b9a998901989297509082019550935083925085019084908082843750949750610ae89650505050505050565b3480156103dd57600080fd5b506103f5600160a060020a0360043516602435610e34565b604080519315158452602084019290925282820152519081900360600190f35b34801561042157600080fd5b50610265600160a060020a036004351660243563ffffffff60443516610e86565b610265600160a060020a03600435166024356110cb565b600160a060020a03919091166000908152600260208181526040808420948452939052919020600381015491015460ff90911691565b600154949350505050565b600160a060020a038316600090815260026020908152604080832085845290915281208054909190815b818110156105035783548490829081106104da57fe5b600091825260209091200154600160a060020a03163314156104fb57600192505b6001016104c4565b821515610580576040805160e560020a62461bcd02815260206004820152602660248201527f53656e646572206d757374206265207061727469636970616e7420696e20646960448201527f73707574652e0000000000000000000000000000000000000000000000000000606482015290519081900360840190fd5b60038481015460ff168181111561059357fe5b141561060f576040805160e560020a62461bcd02815260206004820152602b60248201527f43616e6e6f74207375626d69742065766964656e63652077697468206375727260448201527f656e74207374617475732e000000000000000000000000000000000000000000606482015290519081900360840190fd5b8587600160a060020a03167fdccf2f8b2cc26eafcd61905cba744cff4b81d14740725f6376390dc6298a6a3c33886040518083600160a060020a0316600160a060020a0316815260200180602001828103825283818151815260200191508051906020019080838360005b8381101561069257818101518382015260200161067a565b50505050905090810190601f1680156106bf5780820380516001836020036101000a031916815260200191505b50935050505060405180910390a350505050505050565b600054600160a060020a0316331461075e576040805160e560020a62461bcd02815260206004820152602260248201527f4f6e6c79206f776e65722063616e2063616c6c20746869732066756e6374696f60448201527f6e2e000000000000000000000000000000000000000000000000000000000000606482015290519081900360840190fd5b600155565b600160a060020a038381166000908152600260209081526040808320868452909152812090549091163314610808576040805160e560020a62461bcd02815260206004820152602260248201527f4f6e6c79206f776e65722063616e2063616c6c20746869732066756e6374696f60448201527f6e2e000000000000000000000000000000000000000000000000000000000000606482015290519081900360840190fd5b60008263ffffffff16118015610828575080600101548263ffffffff1611155b15156108a4576040805160e560020a62461bcd02815260206004820152603660248201527f52756c696e67206d757374206e6f74206265203020616e64206c65737320746860448201527f616e206f7220657175616c20746f2063686f6963657300000000000000000000606482015290519081900360840190fd5b600160038083015460ff16908111156108b957fe5b14806108fa5750600260038083015460ff16908111156108d557fe5b1480156108e55750806005015442115b80156108fa57508163ffffffff168160020154145b1515610976576040805160e560020a62461bcd02815260206004820152603760248201527f43616e206f6e6c792072756c652069662077616974696e6720666f722072756c60448201527f696e672c206f722061707065616c2074696d656f75742e000000000000000000606482015290519081900360840190fd5b63ffffffff821660028201556003808201805460ff19169091179055600481015460405133916108fc811502916000818181858888f193505050501580156109c2573d6000803e3d6000fd5b50604080517f86fc1e4b0000000000000000000000000000000000000000000000000000000081526004810185905263ffffffff841660248201529051600160a060020a038616916386fc1e4b91604480830192600092919082900301818387803b158015610a3057600080fd5b505af1158015610a44573d6000803e3d6000fd5b50506040805163ffffffff86168152600060208201528151879450600160a060020a03891693507fc3fdef16dcc2f9cc3e5b0515e1690860b45b7acd0b26b90920b77deeffcf65c8929181900390910190a350505050565b6002602081815260009384526040808520909152918352912060018101549181015460038201546004830154600590930154919260ff9091169185565b600054600160a060020a031681565b33600090815260026020908152604080832087845290915290206001015415610b81576040805160e560020a62461bcd02815260206004820152602660248201527f4469737075746520666f72206964206d757374206e6f7420616c72656164792060448201527f65786973742e0000000000000000000000000000000000000000000000000000606482015290519081900360840190fd5b600263ffffffff84161015610c06576040805160e560020a62461bcd02815260206004820152602c60248201527f4d7573742068617665206174206c656173742074776f2063686f69636573207460448201527f6f206172626974726174652e0000000000000000000000000000000000000000606482015290519081900360840190fd5b6001543414610c85576040805160e560020a62461bcd02815260206004820152602260248201527f4d75737420706179206172626974726174696f6e206665652075702066726f6e60448201527f742e000000000000000000000000000000000000000000000000000000000000606482015290519081900360840190fd5b60008251118015610c985750600a825111155b1515610d14576040805160e560020a62461bcd02815260206004820152603760248201527f4d75737420696e636c756465206174206c65617374206f6e652070617274792060448201527f616e64206174206d6f737420313020706172746965732e000000000000000000606482015290519081900360840190fd5b6040805160c08101825283815263ffffffff851660208083019190915260008284018190526001606084015234608084015260a08301819052338152600282528381208882528252929092208151805192939192610d7592849201906111e9565b50602082015181600101556040820151816002015560608201518160030160006101000a81548160ff02191690836003811115610dae57fe5b02179055506080820151600482015560a09091015160059091015560408051600081529051859133917f898bcfa449e0a0e55eb9752e15e691ddd11c6230db46197b7cd309a3a02ba09d9181900360200190a3604051849033907fd6d59cc001e42a5a40de935528298b12c717a533c61912e794c24654cf13b33390600090a350505050565b600160a060020a03821660009081526002602081815260408084208585529091528220829182919060038083015460ff1690811115610e6f57fe5b146001548260050154935093509350509250925092565b600160a060020a038381166000908152600260209081526040808320868452909152812090549091163314610f2b576040805160e560020a62461bcd02815260206004820152602260248201527f4f6e6c79206f776e65722063616e2063616c6c20746869732066756e6374696f60448201527f6e2e000000000000000000000000000000000000000000000000000000000000606482015290519081900360840190fd5b60008263ffffffff16118015610f4b575080600101548263ffffffff1611155b1515610fc7576040805160e560020a62461bcd02815260206004820152603660248201527f52756c696e67206d757374206e6f74206265203020616e64206c65737320746860448201527f616e206f7220657175616c20746f2063686f6963657300000000000000000000606482015290519081900360840190fd5b600160038083015460ff1690811115610fdc57fe5b14611056576040805160e560020a62461bcd028152602060048201526024808201527f43616e206f6e6c792072756c652069662077616974696e6720666f722072756c60448201527f696e672e00000000000000000000000000000000000000000000000000000000606482015290519081900360840190fd5b63ffffffff8216600282810182905560038301805460ff191690911790554262093a80016005830155604080519182526001602083015280518592600160a060020a038816927fc3fdef16dcc2f9cc3e5b0515e1690860b45b7acd0b26b90920b77deeffcf65c892918290030190a350505050565b600160a060020a038216600090815260026020908152604080832084845290915290206001543414611147576040805160e560020a62461bcd02815260206004820152601760248201527f4d757374207061792066656520666f722061707065616c000000000000000000604482015290519081900360640190fd5b600260038083015460ff169081111561115c57fe5b14801561116d575080600501544211155b15156111c3576040805160e560020a62461bcd02815260206004820152601b60248201527f4d7573742061707065616c206265666f72652074696d656f75742e0000000000604482015290519081900360640190fd5b60048101805434019055600160038083015460ff16908111156111e257fe5b5050505050565b82805482825590600052602060002090810192821561124b579160200282015b8281111561124b578251825473ffffffffffffffffffffffffffffffffffffffff1916600160a060020a03909116178255602090920191600190910190611209565b5061125792915061125b565b5090565b61128c91905b8082111561125757805473ffffffffffffffffffffffffffffffffffffffff19168155600101611261565b905600a165627a7a72305820898da683120e2724750d0d0b4f7920cf5e4d7dd0dd0a6b0d37fbf3e853fe0e8d0029",
  "source": "pragma solidity ^0.4.0;\nimport \"./AppealableArbitrationService.sol\";\n\ncontract CentralizedAppealableArbitrationService is AppealableArbitrationService {\n    /* Contract owner. */\n    address public owner = msg.sender;\n\n    /* Arbitration fee. */\n    uint256 private arbitrationFee = 50 finney;\n\n    /* Disputes tracked by this arbitration contract.  Keyed off Arbitrable contract address and dispute ID. */    \n    mapping(address => mapping(uint256 => DisputeStruct)) public disputesMap;\n\n    /* Dispute struct for two parties with trusted mediator. */\n    struct DisputeStruct {\n        address[] parties;\n        uint256 choices;\n        uint256 ruling;\n        DisputeStatus status;\n        uint256 feeTotal;\n        uint256 appealTimeout;\n    }\n\n    /* Constructor. */\n    constructor() public {\n    }\n\n    /* Fallback function. Added so ether sent to this contract is reverted. */\n    function() public payable {\n        revert(\"Invalid call to contract.\");\n    }\n    \n    /** @dev Set the default arbitration fee. Only callable by the owner.\n     *  @param _fee Default amount to be paid for arbitration.\n     */\n    function setArbitrationFee(uint256 _fee) public {\n        require(msg.sender == owner, \"Only owner can call this function.\"); \n        arbitrationFee = _fee;\n    }\n\n    /** @dev Upfront cost of arbitration that needs to be paid when creating dispute.  Recommended not to change this often.\n     *  Can be 0 since Arbitrator contract may also ask parties to pay additional fees.\n     *  @param _disputeID ID to track dispute given by the arbitrable contract.\n     *  @param _choices Amount of choices the arbitration contract can make in this dispute. When ruling ruling<=choices.\n     *  @param _parties Participants in the dispute.  Can be parties with an interest in the ruling, or mediators.\n     *  @param _extraData Can be used to give additional info on the dispute to be created.\n     *  @return fee Amount to be paid.\n     */\n    function upfrontCost(uint256 _disputeID, uint32 _choices, address[] _parties, uint256[] _extraData) public view returns(uint256 fee) {\n        return arbitrationFee;\n    }\n\n    /** @dev Create a dispute. Must be called by the arbitrable contract.\n     *  Must be paid at least upfrontCost().\n     *  @param _disputeID ID to track dispute given by the arbitrable contract.\n     *  @param _choices Amount of choices the arbitration contract can make in this dispute. When ruling ruling<=choices.\n     *  @param _parties Participants in the dispute.  Can be parties with an interest in the ruling, or mediators.\n     *  @param _extraData Can be used to give additional info on the dispute to be created.\n     */\n    function createDispute(uint256 _disputeID, uint32 _choices, address[] _parties, uint256[] _extraData) public payable {\n        require(\n            disputesMap[msg.sender][_disputeID].choices == 0, \n            \"Dispute for id must not already exist.\"\n        );\n\n        require(\n            _choices >= 2,\n            \"Must have at least two choices to arbitrate.\"\n        );\n\n        require(\n            msg.value == arbitrationFee,\n            \"Must pay arbitration fee up front.\"\n        );\n\n        require(\n            _parties.length > 0 && _parties.length <= 10,\n            \"Must include at least one party and at most 10 parties.\"\n        );\n\n        disputesMap[msg.sender][_disputeID] = DisputeStruct(\n            _parties, \n            _choices, \n            0, \n            DisputeStatus.Waiting,\n            msg.value,\n            0\n        );\n\n        emit DisputeCreated(Arbitrated(msg.sender), _disputeID, false);\n        emit ArbitrationFeesPaid(Arbitrated(msg.sender), _disputeID);\n    }\n\n    /** @dev Give an appealable ruling by owner.\n     *  @param _arbitrated The contract which created the dispute.\n     *  @param _disputeID ID of the dispute to rule.\n     *  @param _ruling Ruling given by the arbitration contract. Note that 0 means \"Not able/wanting to make a decision\".\n     */\n    function giveAppealableRuling(Arbitrated _arbitrated, uint256 _disputeID, uint32 _ruling) public {\n        DisputeStruct storage dispute = disputesMap[_arbitrated][_disputeID];\n\n        require(\n            msg.sender == owner, \n            \"Only owner can call this function.\"\n        );\n\n        require(\n            _ruling > 0 && _ruling <= dispute.choices, \n            \"Ruling must not be 0 and less than or equal to choices\"\n        );\n\n        require(\n            dispute.status == DisputeStatus.Waiting,\n            \"Can only rule if waiting for ruling.\"\n        );\n\n        dispute.ruling = _ruling;\n        dispute.status = DisputeStatus.Appealable;\n        dispute.appealTimeout = block.timestamp + (7 days);\n\n        emit Ruling(_arbitrated, _disputeID, _ruling, true);\n    }\n\n    /** @dev Give a final ruling by owner. UNTRUSTED.\n     *  @param _arbitrated The contract which created the dispute.\n     *  @param _disputeID ID of the dispute to rule.\n     *  @param _ruling Ruling given by the arbitration contract. Note that 0 means \"Not able/wanting to make a decision\".\n     */\n    function giveFinalRuling(Arbitrated _arbitrated, uint256 _disputeID, uint32 _ruling) public {\n        DisputeStruct storage dispute = disputesMap[_arbitrated][_disputeID];\n\n        require(\n            msg.sender == owner, \n            \"Only owner can call this function.\"\n        );\n\n        require(\n            _ruling > 0 && _ruling <= dispute.choices, \n            \"Ruling must not be 0 and less than or equal to choices\"\n        );\n\n        require(\n            dispute.status == DisputeStatus.Waiting || \n            (\n                dispute.status == DisputeStatus.Appealable && \n                block.timestamp > dispute.appealTimeout && \n                dispute.ruling == _ruling\n            ),\n            \"Can only rule if waiting for ruling, or appeal timeout.\"\n        );\n\n        dispute.ruling = _ruling;\n        dispute.status = DisputeStatus.Solved;\n\n        msg.sender.transfer(dispute.feeTotal);\n        \n        /* DANGEROUS external call.  Issue ruling to arbitrated contract. */\n        _arbitrated.rule(_disputeID, _ruling);\n\n        emit Ruling(_arbitrated, _disputeID, _ruling, false);\n    }\n\n    /** @dev Return the status and ruling of a dispute.\n     *  @param _arbitrated The contract which created the dispute.\n     *  @param _disputeID ID of the dispute.\n     *  @return status The status of the dispute.\n     *  @return ruling The ruling which would or has been given.\n     */\n    function disputeStatus(Arbitrated _arbitrated, uint256 _disputeID) public view returns(DisputeStatus status, uint256 ruling) {\n        DisputeStruct storage dispute = disputesMap[_arbitrated][_disputeID];\n        return (dispute.status, dispute.ruling);\n    }\n\n    /** @dev Submit a reference to evidence.  Generates an Evidence EVENT.\n     *  @param _arbitrated The contract which created the dispute.\n     *  @param _disputeID ID of the dispute.\n     *  @param _evidenceJSON A URI to the evidence JSON file whose name should be its keccak256 hash followed by .json.\n     */\n    function submitEvidence(Arbitrated _arbitrated, uint256 _disputeID, string _evidenceJSON) public {\n        DisputeStruct storage dispute = disputesMap[_arbitrated][_disputeID];\n\n        bool senderIsParticipant = false;\n        uint len = dispute.parties.length;\n        for (uint i = 0; i < len; i++) {\n            if (msg.sender == dispute.parties[i]) {\n                senderIsParticipant = true;\n            }\n        }\n\n        require(\n            senderIsParticipant, \n            \"Sender must be participant in dispute.\"\n        );\n\n        require(\n            dispute.status != DisputeStatus.Solved,\n            \"Cannot submit evidence with current status.\"\n        );\n\n        emit Evidence(_arbitrated, _disputeID, msg.sender, _evidenceJSON);\n    }\n\n    /** @dev Determine whether ruling can be appealed, the cost of appeal and last timestamp of appeal.\n     *  @param _arbitrated The contract which created the dispute.\n     *  @param _disputeID ID of the dispute to be appealed.\n     *  @return appealable Whether ruling can be appealed.\n     *  @return fee Amount to be paid.\n     *  @return untilTimestamp Timestamp until which appeal is possible.\n     */\n    function appealInfo(Arbitrated _arbitrated, uint256 _disputeID) public view returns(bool appealable, uint256 fee, uint256 untilTimestamp) {\n        DisputeStruct storage dispute = disputesMap[_arbitrated][_disputeID];\n        return (dispute.status == DisputeStatus.Appealable, arbitrationFee, dispute.appealTimeout);\n    }\n\n    /** @dev Appeal a ruling. Note that it has to be called before the arbitration contract calls rule.\n     *  @param _arbitrated The contract which created the dispute.\n     *  @param _disputeID ID of the dispute to be appealed.\n     */\n    function startAppeal(Arbitrated _arbitrated, uint256 _disputeID) public payable {\n        DisputeStruct storage dispute = disputesMap[_arbitrated][_disputeID];\n\n        require(\n            msg.value == arbitrationFee,\n            \"Must pay fee for appeal\"\n        );\n\n        require(\n            dispute.status == DisputeStatus.Appealable && block.timestamp <= dispute.appealTimeout,\n            \"Must appeal before timeout.\"\n        );\n\n        dispute.feeTotal += msg.value;\n        dispute.status == DisputeStatus.Waiting;\n    }\n}",
  "sourcePath": "/Users/justinhamilton/ethereum/arbitration/contracts/CentralizedAppealableArbitrationService.sol",
  "compiler": {
    "name": "solc",
    "version": "0.4.24+commit.e67f0147.Emscripten.clang"
  },
  "schemaVersion": "3.0.0-beta.0",
  "updatedAt": "2018-09-10T02:53:52.149Z"
}