{
  "contractName": "TransactionManager",
  "abi": [
    {
      "constant": true,
      "inputs": [],
      "name": "arbitrationService",
      "outputs": [
        {
          "name": "",
          "type": "address"
        }
      ],
      "payable": false,
      "stateMutability": "view",
      "type": "function",
      "signature": "0x1b4cf8c6"
    },
    {
      "constant": true,
      "inputs": [
        {
          "name": "",
          "type": "uint256"
        }
      ],
      "name": "transactionArray",
      "outputs": [
        {
          "name": "status",
          "type": "uint8"
        },
        {
          "name": "sender",
          "type": "address"
        },
        {
          "name": "receiver",
          "type": "address"
        },
        {
          "name": "trustedMediator",
          "type": "address"
        },
        {
          "name": "amount",
          "type": "uint256"
        },
        {
          "name": "lockTimestamp",
          "type": "uint256"
        }
      ],
      "payable": false,
      "stateMutability": "view",
      "type": "function",
      "signature": "0xc82ef8fb"
    },
    {
      "inputs": [],
      "payable": false,
      "stateMutability": "nonpayable",
      "type": "constructor",
      "signature": "constructor"
    },
    {
      "payable": true,
      "stateMutability": "payable",
      "type": "fallback"
    },
    {
      "anonymous": false,
      "inputs": [
        {
          "indexed": true,
          "name": "_disputeID",
          "type": "uint256"
        },
        {
          "indexed": false,
          "name": "_evidenceJSON",
          "type": "string"
        }
      ],
      "name": "ContextEvidence",
      "type": "event",
      "signature": "0x769535f8282f6b15734f48c3fcd93af3234443b3593d1e33964453d36088f695"
    },
    {
      "constant": false,
      "inputs": [
        {
          "name": "_receiver",
          "type": "address"
        },
        {
          "name": "_trustedMediator",
          "type": "address"
        },
        {
          "name": "_transactionTermsJSON",
          "type": "string"
        },
        {
          "name": "_lockTimestamp",
          "type": "uint256"
        }
      ],
      "name": "newTransaction",
      "outputs": [
        {
          "name": "",
          "type": "uint256"
        }
      ],
      "payable": true,
      "stateMutability": "payable",
      "type": "function",
      "signature": "0x73626e6a"
    },
    {
      "constant": false,
      "inputs": [
        {
          "name": "_transactionId",
          "type": "uint256"
        }
      ],
      "name": "disputeTransaction",
      "outputs": [],
      "payable": false,
      "stateMutability": "nonpayable",
      "type": "function",
      "signature": "0x49bf2caf"
    },
    {
      "constant": false,
      "inputs": [
        {
          "name": "_disputeID",
          "type": "uint256"
        },
        {
          "name": "_ruling",
          "type": "uint32"
        }
      ],
      "name": "rule",
      "outputs": [],
      "payable": false,
      "stateMutability": "nonpayable",
      "type": "function",
      "signature": "0x86fc1e4b"
    },
    {
      "constant": false,
      "inputs": [
        {
          "name": "_transactionId",
          "type": "uint256"
        }
      ],
      "name": "withdraw",
      "outputs": [],
      "payable": false,
      "stateMutability": "nonpayable",
      "type": "function",
      "signature": "0x2e1a7d4d"
    },
    {
      "constant": true,
      "inputs": [],
      "name": "getTransactionCount",
      "outputs": [
        {
          "name": "count",
          "type": "uint256"
        }
      ],
      "payable": false,
      "stateMutability": "view",
      "type": "function",
      "signature": "0x2e7700f0"
    }
  ],
  "bytecode": "0x608060405261000c61005b565b604051809103906000f080158015610028573d6000803e3d6000fd5b5060008054600160a060020a031916600160a060020a039290921691909117905534801561005557600080fd5b5061006b565b60405161248a80610beb83390190565b610b718061007a6000396000f3006080604052600436106100825763ffffffff7c01000000000000000000000000000000000000000000000000000000006000350416631b4cf8c681146100e95780632e1a7d4d1461011a5780632e7700f01461013457806349bf2caf1461015b57806373626e6a1461017357806386fc1e4b146101d7578063c82ef8fb146101f8575b604080517f08c379a000000000000000000000000000000000000000000000000000000000815260206004820152601960248201527f496e76616c69642063616c6c20746f20636f6e74726163742e00000000000000604482015290519081900360640190fd5b3480156100f557600080fd5b506100fe610265565b60408051600160a060020a039092168252519081900360200190f35b34801561012657600080fd5b50610132600435610274565b005b34801561014057600080fd5b5061014961042f565b60408051918252519081900360200190f35b34801561016757600080fd5b50610132600435610435565b604080516020600460443581810135601f8101849004840285018401909552848452610149948235600160a060020a039081169560248035909216953695946064949293019190819084018382808284375094975050933594506107989350505050565b3480156101e357600080fd5b5061013260043563ffffffff60243516610958565b34801561020457600080fd5b50610210600435610aed565b6040518087600581111561022057fe5b60ff168152600160a060020a039687166020820152948616604080870191909152939095166060850152608084019190915260a0830152519081900360c00192509050f35b600054600160a060020a031681565b600060018281548110151561028557fe5b6000918252602090912060059091020180549091506101009004600160a060020a0316331480156102c557506003815460ff1660058111156102c357fe5b145b806102f657506001810154600160a060020a0316331480156102f657506002815460ff1660058111156102f457fe5b145b8061033657506001810154600160a060020a03163314801561031b5750806004015442115b801561033657506000815460ff16600581111561033457fe5b145b15156103ef57604080517f08c379a000000000000000000000000000000000000000000000000000000000815260206004820152604660248201527f5769746864726177206f6e6c7920616c6c6f776564206166746572206c6f636b60448201527f54696d657374616d702c206f722061667465722072756c696e67206f6620646960648201527f73707574652e0000000000000000000000000000000000000000000000000000608482015290519081900360a40190fd5b805460ff19166004178155600381015460405133916108fc811502916000818181858888f1935050505015801561042a573d6000803e3d6000fd5b505050565b60015490565b600060608060018481548110151561044957fe5b6000918252602090912060059091020180549093506101009004600160a060020a031633148061048557506001830154600160a060020a031633145b151561051857604080517f08c379a000000000000000000000000000000000000000000000000000000000815260206004820152603360248201527f4f6e6c79207061727469636970616e747320696e207472616e73616374696f6e60448201527f2063616e20737461727420646973707574652e00000000000000000000000000606482015290519081900360840190fd5b6000835460ff16600581111561052a57fe5b146105bc57604080517f08c379a000000000000000000000000000000000000000000000000000000000815260206004820152602960248201527f4f6e6c792070656e64696e67207472616e73616374696f6e732063616e20626560448201527f2064697370757465640000000000000000000000000000000000000000000000606482015290519081900360840190fd5b825460ff191660051783556040805160038082526080820190925290602082016060803883395050845482519294506101009004600160a060020a031691849150600090811061060857fe5b600160a060020a03928316602091820290920101526001808501548451921691849190811061063357fe5b600160a060020a03928316602091820290920101526002808501548451921691849190811061065e57fe5b600160a060020a039283166020918202909201810191909152600080546040517f8f798fe7000000000000000000000000000000000000000000000000000000008152600481018981526002602483018190526080604484019081528951608485015289519490971696638f798fe7968c9692958b958b9594606482019360a4909201928883019202908190849084905b838110156107075781810151838201526020016106ef565b50505050905001838103825284818151815260200191508051906020019060200280838360005b8381101561074657818101518382015260200161072e565b505050509050019650505050505050600060405180830381600087803b15801561076f57600080fd5b505af1158015610783573d6000803e3d6000fd5b5050845460ff19166001179094555050505050565b60008060018060c060405190810160405280600060058111156107b757fe5b815233602080830191909152600160a060020a038b811660408401528a16606083015234608083015260a090910187905282546001818101808655600095865292909420835160059283029091018054939590939192849260ff19169190849081111561082057fe5b02179055506020828101518254600160a060020a039182166101000274ffffffffffffffffffffffffffffffffffffffff001990911617835560408085015160018501805491841673ffffffffffffffffffffffffffffffffffffffff199283161790556060860151600286018054919094169116179091556080840151600384015560a0909301516004909201919091558151818152885181830152885194909303945084937f769535f8282f6b15734f48c3fcd93af3234443b3593d1e33964453d36088f69593899390928392918301919085019080838360005b838110156109155781810151838201526020016108fd565b50505050905090810190601f1680156109425780820380516001836020036101000a031916815260200191505b509250505060405180910390a295945050505050565b600060018381548110151561096957fe5b60009182526020822091546005919091029091019150600160a060020a03163314610a1b57604080517f08c379a000000000000000000000000000000000000000000000000000000000815260206004820152602d60248201527f4f6e6c79206172626974726174696f6e20636f6e74726163742063616e20727560448201527f6c65206f6e206469737075746500000000000000000000000000000000000000606482015290519081900360840190fd5b6001815460ff166005811115610a2d57fe5b14610abf57604080517f08c379a000000000000000000000000000000000000000000000000000000000815260206004820152602960248201527f4f6e6c792070656e64696e67207472616e73616374696f6e732063616e20626560448201527f2064697370757465640000000000000000000000000000000000000000000000606482015290519081900360840190fd5b8163ffffffff1660011415610ade57805460ff1916600217815561042a565b805460ff191660031790555050565b6001805482908110610afb57fe5b60009182526020909120600590910201805460018201546002830154600384015460049094015460ff84169550610100909304600160a060020a03908116949281169391169190865600a165627a7a72305820720852ff09e156a5b95cd5eefc8b541a5f1d923fa19afb6d0ef91300998411e60029608060405260008054600160a060020a0319163317905566b1a2bc2ec5000060015562093a8060025534801561003457600080fd5b50612446806100446000396000f3006080604052600436106100f05763ffffffff7c01000000000000000000000000000000000000000000000000000000006000350416630218e43a811461014057806306791f6e1461016f578063114733201461019657806324f820f5146101e557806327754b24146101fd578063285cff3f1461029a5780633a84cc33146102c7578063427c446c146102e85780635e0219081461030c57806372746eaf1461037557806372bc6e7b1461038c5780637ad31965146103a45780638da5cb5b146104b25780638f798fe7146104e3578063bc65b03b14610573578063c93a6c84146105b5578063d3fec3ac146105cd575b6040805160e560020a62461bcd02815260206004820152601960248201527f496e76616c69642063616c6c20746f20636f6e74726163742e00000000000000604482015290519081900360640190fd5b34801561014c57600080fd5b5061016d600160a060020a036004351660243563ffffffff604435166105fa565b005b34801561017b57600080fd5b5061018461098f565b60408051918252519081900360200190f35b3480156101a257600080fd5b506101ba600160a060020a0360043516602435610995565b604051808360038111156101ca57fe5b60ff1681526020018281526020019250505060405180910390f35b3480156101f157600080fd5b5061016d6004356109fe565b34801561020957600080fd5b506040805160206004604435818101358381028086018501909652808552610184958335956024803563ffffffff1696369695606495939492019291829185019084908082843750506040805187358901803560208181028481018201909552818452989b9a998901989297509082019550935083925085019084908082843750949750610a2a9650505050505050565b3480156102a657600080fd5b5061016d600160a060020a036004351660243563ffffffff60443516610a34565b3480156102d357600080fd5b50610184600160a060020a0360043516610e3a565b3480156102f457600080fd5b5061016d600160a060020a0360043516602435610e91565b34801561031857600080fd5b50604080516020600460443581810135601f810184900484028501840190955284845261016d948235600160a060020a03169460248035953695946064949201919081908401838280828437509497506112019650505050505050565b61016d600160a060020a036004351660243561141f565b34801561039857600080fd5b5061016d6004356116fc565b3480156103b057600080fd5b506103c8600160a060020a0360043516602435611789565b604051808e600160a060020a0316600160a060020a031681526020018d600160a060020a0316600160a060020a031681526020018c600160a060020a0316600160a060020a031681526020018b1515151581526020018a151515158152602001891515151581526020018863ffffffff1663ffffffff1681526020018763ffffffff1663ffffffff1681526020018663ffffffff1663ffffffff1681526020018563ffffffff1663ffffffff16815260200184600381111561048657fe5b60ff1681526020018381526020018281526020019d505050505050505050505050505060405180910390f35b3480156104be57600080fd5b506104c761188f565b60408051600160a060020a039092168252519081900360200190f35b604080516020600460443581810135838102808601850190965280855261016d958335956024803563ffffffff1696369695606495939492019291829185019084908082843750506040805187358901803560208181028481018201909552818452989b9a99890198929750908201955093508392508501908490808284375094975061189e9650505050505050565b34801561057f57600080fd5b50610597600160a060020a0360043516602435611eaa565b60408051938452602084019290925282820152519081900360600190f35b3480156105c157600080fd5b5061016d600435611f47565b3480156105d957600080fd5b5061016d600160a060020a036004351660243563ffffffff60443516611fd4565b600160a060020a0383811660009081526005602090815260408083208684529091529020600281015490911633146106a2576040805160e560020a62461bcd02815260206004820152602d60248201527f4f6e6c792074727573746564206d65646961746f722063616e2063616c6c207460448201527f6869732066756e6374696f6e2e00000000000000000000000000000000000000606482015290519081900360840190fd5b60008263ffffffff161180156106e15750600281015463ffffffff77010000000000000000000000000000000000000000000000909104811690831611155b151561075d576040805160e560020a62461bcd02815260206004820152603660248201527f52756c696e67206d757374206e6f74206265203020616e64206c65737320746860448201527f616e206f7220657175616c20746f2063686f6963657300000000000000000000606482015290519081900360840190fd5b600160038281015468010000000000000000900460ff169081111561077e57fe5b146107f8576040805160e560020a62461bcd028152602060048201526024808201527f43616e206f6e6c792072756c652069662077616974696e6720666f722072756c60448201527f696e672e00000000000000000000000000000000000000000000000000000000606482015290519081900360840190fd5b6002818101805460038401805468ff00000000000000001916680300000000000000001790557fff00000000ffffffffffffffffffffffffffffffffffffffffffffffffffffff167b0100000000000000000000000000000000000000000000000000000063ffffffff8616021775ffff000000000000000000000000000000000000000019169055600482015460405133929190910280156108fc02916000818181858888f193505050501580156108b5573d6000803e3d6000fd5b50604080517f86fc1e4b0000000000000000000000000000000000000000000000000000000081526004810185905263ffffffff841660248201529051600160a060020a038616916386fc1e4b91604480830192600092919082900301818387803b15801561092357600080fd5b505af1158015610937573d6000803e3d6000fd5b50506040805163ffffffff86168152600060208201528151879450600160a060020a03891693507fc3fdef16dcc2f9cc3e5b0515e1690860b45b7acd0b26b90920b77deeffcf65c8929181900390910190a350505050565b60025481565b600160a060020a039190911660009081526005602090815260408083209383529290522060038101546002909101546801000000000000000090910460ff16917b0100000000000000000000000000000000000000000000000000000090910463ffffffff1690565b33600090815260036020908152604080832084905560049091529020805460ff19169115919091179055565b6000949350505050565b600160a060020a038316600090815260056020908152604080832085845290915281209063ffffffff8316118015610a955750600281015463ffffffff77010000000000000000000000000000000000000000000000909104811690831611155b1515610b11576040805160e560020a62461bcd02815260206004820152603660248201527f52756c696e67206d757374206e6f74206265203020616e64206c65737320746860448201527f616e206f7220657175616c20746f2063686f6963657300000000000000000000606482015290519081900360840190fd5b600060038281015468010000000000000000900460ff1690811115610b3257fe5b14610bad576040805160e560020a62461bcd02815260206004820152602a60248201527f43616e206f6e6c7920686176652074696d656f75742072756c696e672069662060448201527f66656573206f7765642e00000000000000000000000000000000000000000000606482015290519081900360840190fd5b600581015415801590610bc35750806005015442115b1515610c3f576040805160e560020a62461bcd02815260206004820152602d60248201527f54696d657374616d70206d757374206265206c61746572207468616e2064697360448201527f707574652074696d656f75742e00000000000000000000000000000000000000606482015290519081900360840190fd5b8054600160a060020a031633148015610c745750600281015474010000000000000000000000000000000000000000900460ff165b8015610c9e575060028101547501000000000000000000000000000000000000000000900460ff16155b80610d0657506001810154600160a060020a031633148015610cdd575060028101547501000000000000000000000000000000000000000000900460ff165b8015610d065750600281015474010000000000000000000000000000000000000000900460ff16155b1515610d82576040805160e560020a62461bcd02815260206004820152603e60248201527f52657175697265732073656e6465722068617320706169642066656520616e6460448201527f206f7468657220706172747920686173206e6f742070616964206665652e0000606482015290519081900360840190fd5b60028101805460038301805468ff00000000000000001916680300000000000000001790557fff00000000ffffffffffffffffffffffffffffffffffffffffffffffffffffff167b0100000000000000000000000000000000000000000000000000000063ffffffff8516021775ffff0000000000000000000000000000000000000000191690556004810154604051339180156108fc02916000818181858888f193505050501580156108b5573d6000803e3d6000fd5b600160a060020a0381166000908152600360205260409020546002900480158015610e7e5750600160a060020a03821660009081526004602052604090205460ff16155b15610e8c5750600154600290045b919050565b600160a060020a038216600090815260056020908152604080832084845290915290206003808281015468010000000000000000900460ff1690811115610ed457fe5b14610f4f576040805160e560020a62461bcd02815260206004820152602a60248201527f43616e206f6e6c7920776974686472617720616674657220646973707574652060448201527f697320736f6c7665642e00000000000000000000000000000000000000000000606482015290519081900360840190fd5b8054600160a060020a031633148015610f845750600281015474010000000000000000000000000000000000000000900460ff165b8015610faf57506002810154760100000000000000000000000000000000000000000000900460ff16155b8061101957506001810154600160a060020a031633148015610fee575060028101547501000000000000000000000000000000000000000000900460ff165b801561101957506002810154760100000000000000000000000000000000000000000000900460ff16155b8061105957506002810154600160a060020a03163314801561105957506002810154760100000000000000000000000000000000000000000000900460ff165b15156110d5576040805160e560020a62461bcd02815260206004820152602260248201527f4d7573742068617665206665652062616c616e636520746f207769746864726160448201527f772e000000000000000000000000000000000000000000000000000000000000606482015290519081900360840190fd5b6002810154600160a060020a0316331415611147576002808201805476ff0000000000000000000000000000000000000000000019169055600482015460405133929190910280156108fc02916000818181858888f19350505050158015611141573d6000803e3d6000fd5b506111fc565b8054600160a060020a03163314156111a95760028101805474ff0000000000000000000000000000000000000000191690556004810154604051339180156108fc02916000818181858888f19350505050158015611141573d6000803e3d6000fd5b60028101805475ff000000000000000000000000000000000000000000191690556004810154604051339180156108fc02916000818181858888f193505050501580156111fa573d6000803e3d6000fd5b505b505050565b600160a060020a0383811660009081526005602090815260408083208684529091529020805490911633148061124357506001810154600160a060020a031633145b15156112bf576040805160e560020a62461bcd02815260206004820152602260248201527f53656e646572206d7573742062652070617274792041206f722070617274792060448201527f422e000000000000000000000000000000000000000000000000000000000000606482015290519081900360840190fd5b6003808281015468010000000000000000900460ff16908111156112df57fe5b141561135b576040805160e560020a62461bcd02815260206004820152602b60248201527f43616e6e6f74207375626d69742065766964656e63652077697468206375727260448201527f656e74207374617475732e000000000000000000000000000000000000000000606482015290519081900360840190fd5b8284600160a060020a03167fdccf2f8b2cc26eafcd61905cba744cff4b81d14740725f6376390dc6298a6a3c33856040518083600160a060020a0316600160a060020a0316815260200180602001828103825283818151815260200191508051906020019080838360005b838110156113de5781810151838201526020016113c6565b50505050905090810190601f16801561140b5780820380516001836020036101000a031916815260200191505b50935050505060405180910390a350505050565b600160a060020a03828116600090815260056020908152604080832085845290915290208054909116331480156114735750600281015474010000000000000000000000000000000000000000900460ff16155b80156114825750806004015434145b806114d157506001810154600160a060020a0316331480156114c2575060028101547501000000000000000000000000000000000000000000900460ff16155b80156114d15750806004015434145b1515611527576040805160e560020a62461bcd02815260206004820152601860248201527f4d7573742070617920657861637420666565206f7765642e0000000000000000604482015290519081900360640190fd5b600060038281015468010000000000000000900460ff169081111561154857fe5b146115c3576040805160e560020a62461bcd02815260206004820152602860248201527f43616e206f6e6c7920706179206665657320696620737461747573206973204660448201527f6565734f7765642e000000000000000000000000000000000000000000000000606482015290519081900360840190fd5b8054600160a060020a03163314156116115760028101805474ff000000000000000000000000000000000000000019167401000000000000000000000000000000000000000017905561164b565b60028101805475ff000000000000000000000000000000000000000000191675010000000000000000000000000000000000000000001790555b600280544201600583015581015474010000000000000000000000000000000000000000900460ff16801561169d575060028101547501000000000000000000000000000000000000000000900460ff165b156111fc5760038101805468ff00000000000000001916680100000000000000001790556040518290600160a060020a038516907fd6d59cc001e42a5a40de935528298b12c717a533c61912e794c24654cf13b33390600090a3505050565b600054600160a060020a03163314611784576040805160e560020a62461bcd02815260206004820152602260248201527f4f6e6c79206f776e65722063616e2063616c6c20746869732066756e6374696f60448201527f6e2e000000000000000000000000000000000000000000000000000000000000606482015290519081900360840190fd5b600255565b60056020818152600093845260408085209091529183529120805460018201546002830154600384015460048501549490950154600160a060020a0393841695928416949382169360ff74010000000000000000000000000000000000000000840481169475010000000000000000000000000000000000000000008504821694760100000000000000000000000000000000000000000000810483169463ffffffff7701000000000000000000000000000000000000000000000083048116957b01000000000000000000000000000000000000000000000000000000909304811694848216946401000000008104909216936801000000000000000090920416918d565b600054600160a060020a031681565b33600090815260056020908152604080832087845290915281206002015477010000000000000000000000000000000000000000000000900463ffffffff1615611958576040805160e560020a62461bcd02815260206004820152602660248201527f4469737075746520666f72206964206d757374206e6f7420616c72656164792060448201527f65786973742e0000000000000000000000000000000000000000000000000000606482015290519081900360840190fd5b600263ffffffff851610156119dd576040805160e560020a62461bcd02815260206004820152602c60248201527f4d7573742068617665206174206c656173742074776f2063686f69636573207460448201527f6f206172626974726174652e0000000000000000000000000000000000000000606482015290519081900360840190fd5b82516000908490829081106119ee57fe5b90602001906020020151600160a060020a031614158015611a325750825160009084906001908110611a1c57fe5b90602001906020020151600160a060020a031614155b8015611a615750825160009084906002908110611a4b57fe5b90602001906020020151600160a060020a031614155b1515611add576040805160e560020a62461bcd02815260206004820152602260248201527f506172746965732063616e6e6f74206265206e756c6c206f72206d697373696e60448201527f672e000000000000000000000000000000000000000000000000000000000000606482015290519081900360840190fd5b611afe836002815181101515611aef57fe5b90602001906020020151610e3a565b90506101a060405190810160405280846000815181101515611b1c57fe5b90602001906020020151600160a060020a03168152602001846001815181101515611b4357fe5b90602001906020020151600160a060020a03168152602001846002815181101515611b6a57fe5b6020908102909101810151600160a060020a0316825283159082018190526040820181905260006060830181905263ffffffff8816608084015260a0830181905260c0830181905260e083015261010090910190611bc9576000611bcc565b60015b6003811115611bd757fe5b81526020808201849052600060409283018190523381526005825282812089825282528290208351815473ffffffffffffffffffffffffffffffffffffffff19908116600160a060020a03928316178355928501516001830180548516918316919091179055928401516002820180546060870151608088015160a089015160c08a015160e08b015194909816959098169490941774ff0000000000000000000000000000000000000000191674010000000000000000000000000000000000000000911515919091021775ff00000000000000000000000000000000000000000019167501000000000000000000000000000000000000000000931515939093029290921776ff00000000000000000000000000000000000000000000191676010000000000000000000000000000000000000000000095151595909502949094177fffffffffff00000000ffffffffffffffffffffffffffffffffffffffffffffff167701000000000000000000000000000000000000000000000063ffffffff94851602177fff00000000ffffffffffffffffffffffffffffffffffffffffffffffffffffff167b0100000000000000000000000000000000000000000000000000000091841691909102179092556101008301516003808401805461012087015163ffffffff199091169385169390931767ffffffff0000000019166401000000009390941692909202929092178082556101408501519268ff0000000000000000199091169068010000000000000000908490811115611e1857fe5b02179055506101608201516004820155610180909101516005909101556040805182151581529051869133917f898bcfa449e0a0e55eb9752e15e691ddd11c6230db46197b7cd309a3a02ba09d9181900360200190a3801515611ea357604051859033907fd6d59cc001e42a5a40de935528298b12c717a533c61912e794c24654cf13b33390600090a35b5050505050565b600160a060020a0382166000908152600560209081526040808320848452909152812060028101548291829174010000000000000000000000000000000000000000900460ff16611eff578060040154611f02565b60005b60028201547501000000000000000000000000000000000000000000900460ff16611f31578160040154611f34565b60005b8260050154935093509350509250925092565b600054600160a060020a03163314611fcf576040805160e560020a62461bcd02815260206004820152602260248201527f4f6e6c79206f776e65722063616e2063616c6c20746869732066756e6374696f60448201527f6e2e000000000000000000000000000000000000000000000000000000000000606482015290519081900360840190fd5b600155565b600160a060020a038316600090815260056020908152604080832085845290915281209063ffffffff83161180156120355750600281015463ffffffff77010000000000000000000000000000000000000000000000909104811690831611155b15156120b1576040805160e560020a62461bcd02815260206004820152603660248201527f52756c696e67206d757374206e6f74206265203020616e64206c65737320746860448201527f616e206f7220657175616c20746f2063686f6963657300000000000000000000606482015290519081900360840190fd5b6003808281015468010000000000000000900460ff16908111156120d157fe5b141561214d576040805160e560020a62461bcd02815260206004820152602660248201527f43616e206f6e6c7920726571756573742072756c696e67206966206e6f74207360448201527f6f6c7665642e0000000000000000000000000000000000000000000000000000606482015290519081900360840190fd5b8054600160a060020a031633148061217157506001810154600160a060020a031633145b15156121ed576040805160e560020a62461bcd02815260206004820152602260248201527f53656e646572206d7573742062652070617274792041206f722070617274792060448201527f422e000000000000000000000000000000000000000000000000000000000000606482015290519081900360840190fd5b8054600160a060020a031633141561221b5760038101805463ffffffff191663ffffffff841617905561223e565b60038101805467ffffffff00000000191664010000000063ffffffff8516021790555b600381015463ffffffff8082166401000000009092041614156111fa57600160038281015468010000000000000000900460ff169081111561227c57fe5b14801561228d575080600501544211155b80156122b55750600281015474010000000000000000000000000000000000000000900460ff165b80156122de575060028101547501000000000000000000000000000000000000000000900460ff165b1561233a5760028101805475ffff00000000000000000000000000000000000000001976ff0000000000000000000000000000000000000000000019909116760100000000000000000000000000000000000000000000171690555b6002810180547fff00000000ffffffffffffffffffffffffffffffffffffffffffffffffffffff167b0100000000000000000000000000000000000000000000000000000063ffffffff8516021790556003808201805468ff0000000000000000191668010000000000000000830217905550604080517f86fc1e4b0000000000000000000000000000000000000000000000000000000081526004810185905263ffffffff841660248201529051600160a060020a038616916386fc1e4b91604480830192600092919082900301818387803b15801561092357600080fd00a165627a7a7230582003e34ebeddc0df79a03d9325e696b6a826b97e9eadddc1a8e83cc50ca0088a570029",
  "source": "pragma solidity ^0.4.0;\nimport \"./Arbitrated.sol\";\nimport \"./TwoPartyRulingRequestArbitrationService.sol\";\n\ncontract TransactionManager is Arbitrated {\n\n    /* Arbitration contract. */\n    TwoPartyRulingRequestArbitrationService public arbitrationService = new TwoPartyRulingRequestArbitrationService();\n\n    /* Array of transactions. */\n    TransactionData[] public transactionArray;\n\n    /* Status of transaction. */\n    enum TransactionStatus { \n        Pending, Disputed, PayReceiver, RefundSender, Closed, PreventReentrancy \n    }\n\n    /* Transaction struct for a mediated payment. */\n    struct TransactionData {\n        TransactionStatus status;\n        address sender;\n        address receiver;\n        address trustedMediator;\n        uint256 amount;\n        uint256 lockTimestamp;\n    }\n\n    /* Constructor. */\n    constructor() public {\n    }\n\n    /* Fallback function. Added so ether sent to this contract is reverted. */\n    function() public payable {\n        revert(\"Invalid call to contract.\");\n    }\n\n    /** @dev Creates a new transaction.\n     *  @param _receiver Address receiving the payment.\n     *  @param _trustedMediator Address mediating any potential disputes.\n     *  @param _transactionTermsJSON A URI to the evidence JSON file whose name should be its keccak256 hash followed by .json.\n     *  @param _lockTimestamp Timestamp when funds are locked until.\n     */\n    function newTransaction(\n        address _receiver, \n        address _trustedMediator, \n        string _transactionTermsJSON,\n        uint256 _lockTimestamp\n    )\n        public\n        payable \n        returns(uint256) \n    {\n        uint256 transactionId = transactionArray.push(TransactionData(\n            TransactionStatus.Pending, \n            msg.sender, \n            _receiver, \n            _trustedMediator, \n            msg.value,\n            _lockTimestamp\n        )) - 1;\n\n        emit ContextEvidence(transactionId, _transactionTermsJSON);\n        return transactionId;\n    }\n\n    /** @dev Start dispute regarding transaction.\n     *  @param _transactionId ID of the transaction.\n     */\n    function disputeTransaction(uint256 _transactionId) public {\n        TransactionData storage transaction = transactionArray[_transactionId];\n\n        require(\n            msg.sender == transaction.sender || msg.sender == transaction.receiver, \n            \"Only participants in transaction can start dispute.\"\n        );\n\n        require(\n            transaction.status == TransactionStatus.Pending,\n            \"Only pending transactions can be disputed\"\n        );\n\n        /* Change transaction status to prevent reentrancy attacks. */\n        transaction.status = TransactionStatus.PreventReentrancy;\n\n        address[] memory parties = new address[](3);\n        parties[0] = transaction.sender;\n        parties[1] = transaction.receiver;\n        parties[2] = transaction.trustedMediator;\n\n        uint256[] memory extraData;\n        /* DANGEROUS external call.  Create dispute with arbitration. */\n        arbitrationService.createDispute(_transactionId, 2, parties, extraData);\n        \n        /* Now we can change transaction status to disputed. */\n        transaction.status = TransactionStatus.Disputed;\n    }\n\n    /** @dev Give a ruling for a dispute. Must be called by the arbitration contract.\n     *  @param _disputeID ID of the dispute.\n     *  @param _ruling Ruling given by the arbitration contract. Note that 0 is reserved for \"Not able/wanting to make a decision\".\n     */\n    function rule(uint256 _disputeID, uint32 _ruling) public {\n        TransactionData storage transaction = transactionArray[_disputeID];\n\n        require(\n            msg.sender == address(arbitrationService), \n            \"Only arbitration contract can rule on dispute\"\n        );\n\n        require(\n            transaction.status == TransactionStatus.Disputed,\n            \"Only pending transactions can be disputed\"\n        );\n\n        if (_ruling == 1) {\n            transaction.status = TransactionStatus.PayReceiver;\n        }\n        else {\n            transaction.status = TransactionStatus.RefundSender;\n        }\n    }\n\n    /** @dev Withdraw funds from transaction.\n     *  @param _transactionId ID of the transaction.\n     */\n    function withdraw(uint256 _transactionId) public {\n        TransactionData storage transaction = transactionArray[_transactionId];\n\n        require(\n            (msg.sender == transaction.sender && transaction.status == TransactionStatus.RefundSender) ||\n            (msg.sender == transaction.receiver && transaction.status == TransactionStatus.PayReceiver) ||\n            (\n                msg.sender == transaction.receiver && \n                block.timestamp > transaction.lockTimestamp && \n                transaction.status == TransactionStatus.Pending\n            ), \n            \"Withdraw only allowed after lockTimestamp, or after ruling of dispute.\"\n        );\n\n        transaction.status = TransactionStatus.Closed;\n        msg.sender.transfer(transaction.amount);\n    }\n\n    /** @dev Get count of transactions. */\n    function getTransactionCount() public view returns(uint256 count) {\n        return transactionArray.length;\n    }\n}",
  "sourcePath": "/Users/justinhamilton/ethereum/arbitration/contracts/TransactionManager.sol",
  "compiler": {
    "name": "solc",
    "version": "0.4.24+commit.e67f0147.Emscripten.clang"
  },
  "schemaVersion": "3.0.0-beta.0",
  "updatedAt": "2018-09-10T20:03:21.572Z"
}