{
  "contractName": "TransactionManager",
  "abi": [
    {
      "constant": true,
      "inputs": [],
      "name": "arbitrationService",
      "outputs": [
        {
          "name": "",
          "type": "address"
        }
      ],
      "payable": false,
      "stateMutability": "view",
      "type": "function",
      "signature": "0x1b4cf8c6"
    },
    {
      "constant": true,
      "inputs": [
        {
          "name": "",
          "type": "uint256"
        }
      ],
      "name": "transactionArray",
      "outputs": [
        {
          "name": "status",
          "type": "uint8"
        },
        {
          "name": "sender",
          "type": "address"
        },
        {
          "name": "receiver",
          "type": "address"
        },
        {
          "name": "trustedMediator",
          "type": "address"
        },
        {
          "name": "amount",
          "type": "uint256"
        },
        {
          "name": "lockTimestamp",
          "type": "uint256"
        }
      ],
      "payable": false,
      "stateMutability": "view",
      "type": "function",
      "signature": "0xc82ef8fb"
    },
    {
      "inputs": [
        {
          "name": "_arbitrationService",
          "type": "address"
        }
      ],
      "payable": false,
      "stateMutability": "nonpayable",
      "type": "constructor",
      "signature": "constructor"
    },
    {
      "payable": true,
      "stateMutability": "payable",
      "type": "fallback"
    },
    {
      "anonymous": false,
      "inputs": [
        {
          "indexed": true,
          "name": "_disputeID",
          "type": "uint256"
        },
        {
          "indexed": false,
          "name": "_evidenceJSON",
          "type": "string"
        }
      ],
      "name": "ContextEvidence",
      "type": "event",
      "signature": "0x769535f8282f6b15734f48c3fcd93af3234443b3593d1e33964453d36088f695"
    },
    {
      "constant": false,
      "inputs": [
        {
          "name": "_receiver",
          "type": "address"
        },
        {
          "name": "_trustedMediator",
          "type": "address"
        },
        {
          "name": "_transactionTermsJSON",
          "type": "string"
        },
        {
          "name": "_lockTimestamp",
          "type": "uint256"
        }
      ],
      "name": "newTransaction",
      "outputs": [
        {
          "name": "",
          "type": "uint256"
        }
      ],
      "payable": true,
      "stateMutability": "payable",
      "type": "function",
      "signature": "0x73626e6a"
    },
    {
      "constant": false,
      "inputs": [
        {
          "name": "_transactionId",
          "type": "uint256"
        }
      ],
      "name": "disputeTransaction",
      "outputs": [],
      "payable": true,
      "stateMutability": "payable",
      "type": "function",
      "signature": "0x49bf2caf"
    },
    {
      "constant": false,
      "inputs": [
        {
          "name": "_disputeID",
          "type": "uint256"
        },
        {
          "name": "_ruling",
          "type": "uint32"
        }
      ],
      "name": "rule",
      "outputs": [],
      "payable": false,
      "stateMutability": "nonpayable",
      "type": "function",
      "signature": "0x86fc1e4b"
    },
    {
      "constant": false,
      "inputs": [
        {
          "name": "_transactionId",
          "type": "uint256"
        }
      ],
      "name": "withdraw",
      "outputs": [],
      "payable": false,
      "stateMutability": "nonpayable",
      "type": "function",
      "signature": "0x2e1a7d4d"
    },
    {
      "constant": true,
      "inputs": [],
      "name": "getTransactionCount",
      "outputs": [
        {
          "name": "count",
          "type": "uint256"
        }
      ],
      "payable": false,
      "stateMutability": "view",
      "type": "function",
      "signature": "0x2e7700f0"
    }
  ],
  "bytecode": "0x608060405234801561001057600080fd5b50604051602080610bd9833981016040525160008054600160a060020a03909216600160a060020a0319909216919091179055610b87806100526000396000f3006080604052600436106100825763ffffffff7c01000000000000000000000000000000000000000000000000000000006000350416631b4cf8c681146100e95780632e1a7d4d1461011a5780632e7700f01461013457806349bf2caf1461015b57806373626e6a1461016657806386fc1e4b146101ca578063c82ef8fb146101eb575b604080517f08c379a000000000000000000000000000000000000000000000000000000000815260206004820152601960248201527f496e76616c69642063616c6c20746f20636f6e74726163742e00000000000000604482015290519081900360640190fd5b3480156100f557600080fd5b506100fe610258565b60408051600160a060020a039092168252519081900360200190f35b34801561012657600080fd5b50610132600435610267565b005b34801561014057600080fd5b50610149610422565b60408051918252519081900360200190f35b610132600435610428565b604080516020600460443581810135601f8101849004840285018401909552848452610149948235600160a060020a039081169560248035909216953695946064949293019190819084018382808284375094975050933594506107ae9350505050565b3480156101d657600080fd5b5061013260043563ffffffff6024351661096e565b3480156101f757600080fd5b50610203600435610b03565b6040518087600581111561021357fe5b60ff168152600160a060020a039687166020820152948616604080870191909152939095166060850152608084019190915260a0830152519081900360c00192509050f35b600054600160a060020a031681565b600060018281548110151561027857fe5b6000918252602090912060059091020180549091506101009004600160a060020a0316331480156102b857506003815460ff1660058111156102b657fe5b145b806102e957506001810154600160a060020a0316331480156102e957506002815460ff1660058111156102e757fe5b145b8061032957506001810154600160a060020a03163314801561030e5750806004015442115b801561032957506000815460ff16600581111561032757fe5b145b15156103e257604080517f08c379a000000000000000000000000000000000000000000000000000000000815260206004820152604660248201527f5769746864726177206f6e6c7920616c6c6f776564206166746572206c6f636b60448201527f54696d657374616d702c206f722061667465722072756c696e67206f6620646960648201527f73707574652e0000000000000000000000000000000000000000000000000000608482015290519081900360a40190fd5b805460ff19166004178155600381015460405133916108fc811502916000818181858888f1935050505015801561041d573d6000803e3d6000fd5b505050565b60015490565b600060608060018481548110151561043c57fe5b6000918252602090912060059091020180549093506101009004600160a060020a031633148061047857506001830154600160a060020a031633145b151561050b57604080517f08c379a000000000000000000000000000000000000000000000000000000000815260206004820152603360248201527f4f6e6c79207061727469636970616e747320696e207472616e73616374696f6e60448201527f2063616e20737461727420646973707574652e00000000000000000000000000606482015290519081900360840190fd5b6000835460ff16600581111561051d57fe5b146105af57604080517f08c379a000000000000000000000000000000000000000000000000000000000815260206004820152602960248201527f4f6e6c792070656e64696e67207472616e73616374696f6e732063616e20626560448201527f2064697370757465640000000000000000000000000000000000000000000000606482015290519081900360840190fd5b825460ff191660051783556040805160038082526080820190925290602082016060803883395050845482519294506101009004600160a060020a03169184915060009081106105fb57fe5b600160a060020a03928316602091820290920101526001808501548451921691849190811061062657fe5b600160a060020a03928316602091820290920101526002808501548451921691849190811061065157fe5b90602001906020020190600160a060020a03169081600160a060020a0316815250506000809054906101000a9004600160a060020a0316600160a060020a0316638f798fe73486600286866040518663ffffffff167c0100000000000000000000000000000000000000000000000000000000028152600401808581526020018463ffffffff1681526020018060200180602001838103835285818151815260200191508051906020019060200280838360005b8381101561071d578181015183820152602001610705565b50505050905001838103825284818151815260200191508051906020019060200280838360005b8381101561075c578181015183820152602001610744565b5050505090500196505050505050506000604051808303818588803b15801561078457600080fd5b505af1158015610798573d6000803e3d6000fd5b5050855460ff1916600117909555505050505050565b60008060018060c060405190810160405280600060058111156107cd57fe5b815233602080830191909152600160a060020a038b811660408401528a16606083015234608083015260a090910187905282546001818101808655600095865292909420835160059283029091018054939590939192849260ff19169190849081111561083657fe5b02179055506020828101518254600160a060020a039182166101000274ffffffffffffffffffffffffffffffffffffffff001990911617835560408085015160018501805491841673ffffffffffffffffffffffffffffffffffffffff199283161790556060860151600286018054919094169116179091556080840151600384015560a0909301516004909201919091558151818152885181830152885194909303945084937f769535f8282f6b15734f48c3fcd93af3234443b3593d1e33964453d36088f69593899390928392918301919085019080838360005b8381101561092b578181015183820152602001610913565b50505050905090810190601f1680156109585780820380516001836020036101000a031916815260200191505b509250505060405180910390a295945050505050565b600060018381548110151561097f57fe5b60009182526020822091546005919091029091019150600160a060020a03163314610a3157604080517f08c379a000000000000000000000000000000000000000000000000000000000815260206004820152602d60248201527f4f6e6c79206172626974726174696f6e20636f6e74726163742063616e20727560448201527f6c65206f6e206469737075746500000000000000000000000000000000000000606482015290519081900360840190fd5b6001815460ff166005811115610a4357fe5b14610ad557604080517f08c379a000000000000000000000000000000000000000000000000000000000815260206004820152602960248201527f4f6e6c792070656e64696e67207472616e73616374696f6e732063616e20626560448201527f2064697370757465640000000000000000000000000000000000000000000000606482015290519081900360840190fd5b8163ffffffff1660011415610af457805460ff1916600217815561041d565b805460ff191660031790555050565b6001805482908110610b1157fe5b60009182526020909120600590910201805460018201546002830154600384015460049094015460ff84169550610100909304600160a060020a03908116949281169391169190865600a165627a7a72305820cd104d070a3fc2dc5efd40878a1df13e12938ef26050594e49972932b4c534640029",
  "source": "pragma solidity ^0.4.0;\nimport \"./Arbitrated.sol\";\nimport \"./TwoPartyMediatedArbitrationService.sol\";\n\ncontract TransactionManager is Arbitrated {\n\n    /* Arbitration contract. */\n    TwoPartyMediatedArbitrationService public arbitrationService;\n\n    /* Array of transactions. */\n    TransactionData[] public transactionArray;\n\n    /* Status of transaction. */\n    enum TransactionStatus { \n        Pending, Disputed, PayReceiver, RefundSender, Closed, PreventReentrancy \n    }\n\n    /* Transaction struct for a mediated payment. */\n    struct TransactionData {\n        TransactionStatus status;\n        address sender;\n        address receiver;\n        address trustedMediator;\n        uint256 amount;\n        uint256 lockTimestamp;\n    }\n\n    /* Constructor. */\n    constructor(TwoPartyMediatedArbitrationService _arbitrationService) public {\n        arbitrationService = _arbitrationService;\n    }\n\n    /* Fallback function. Added so ether sent to this contract is reverted. */\n    function() public payable {\n        revert(\"Invalid call to contract.\");\n    }\n\n    /** @dev Creates a new transaction.\n     *  @param _receiver Address receiving the payment.\n     *  @param _trustedMediator Address mediating any potential disputes.\n     *  @param _transactionTermsJSON A URI to the evidence JSON file whose name should be its keccak256 hash followed by .json.\n     *  @param _lockTimestamp Timestamp when funds are locked until.\n     */\n    function newTransaction(\n        address _receiver, \n        address _trustedMediator, \n        string _transactionTermsJSON,\n        uint256 _lockTimestamp\n    )\n        public\n        payable \n        returns(uint256) \n    {\n        uint256 transactionId = transactionArray.push(TransactionData(\n            TransactionStatus.Pending, \n            msg.sender, \n            _receiver, \n            _trustedMediator, \n            msg.value,\n            _lockTimestamp\n        )) - 1;\n\n        emit ContextEvidence(transactionId, _transactionTermsJSON);\n        return transactionId;\n    }\n\n    /** @dev Start dispute regarding transaction.\n     *  @param _transactionId ID of the transaction.\n     */\n    function disputeTransaction(uint256 _transactionId) public payable {\n        TransactionData storage transaction = transactionArray[_transactionId];\n\n        require(\n            msg.sender == transaction.sender || msg.sender == transaction.receiver, \n            \"Only participants in transaction can start dispute.\"\n        );\n\n        require(\n            transaction.status == TransactionStatus.Pending,\n            \"Only pending transactions can be disputed\"\n        );\n\n        /* Change transaction status to prevent reentrancy attacks. */\n        transaction.status = TransactionStatus.PreventReentrancy;\n\n        address[] memory parties = new address[](3);\n        parties[0] = transaction.sender;\n        parties[1] = transaction.receiver;\n        parties[2] = transaction.trustedMediator;\n\n        uint256[] memory extraData;\n        /* DANGEROUS external call.  Create dispute with arbitration. */\n        arbitrationService.createDispute.value(msg.value)(_transactionId, 2, parties, extraData);\n        \n        /* Now we can change transaction status to disputed. */\n        transaction.status = TransactionStatus.Disputed;\n    }\n\n    /** @dev Give a ruling for a dispute. Must be called by the arbitration contract.\n     *  @param _disputeID ID of the dispute.\n     *  @param _ruling Ruling given by the arbitration contract. Note that 0 is reserved for \"Not able/wanting to make a decision\".\n     */\n    function rule(uint256 _disputeID, uint32 _ruling) public {\n        TransactionData storage transaction = transactionArray[_disputeID];\n\n        require(\n            msg.sender == address(arbitrationService), \n            \"Only arbitration contract can rule on dispute\"\n        );\n\n        require(\n            transaction.status == TransactionStatus.Disputed,\n            \"Only pending transactions can be disputed\"\n        );\n\n        if (_ruling == 1) {\n            transaction.status = TransactionStatus.PayReceiver;\n        }\n        else {\n            transaction.status = TransactionStatus.RefundSender;\n        }\n    }\n\n    /** @dev Withdraw funds from transaction.\n     *  @param _transactionId ID of the transaction.\n     */\n    function withdraw(uint256 _transactionId) public {\n        TransactionData storage transaction = transactionArray[_transactionId];\n\n        require(\n            (msg.sender == transaction.sender && transaction.status == TransactionStatus.RefundSender) ||\n            (msg.sender == transaction.receiver && transaction.status == TransactionStatus.PayReceiver) ||\n            (\n                msg.sender == transaction.receiver && \n                block.timestamp > transaction.lockTimestamp && \n                transaction.status == TransactionStatus.Pending\n            ), \n            \"Withdraw only allowed after lockTimestamp, or after ruling of dispute.\"\n        );\n\n        transaction.status = TransactionStatus.Closed;\n        msg.sender.transfer(transaction.amount);\n    }\n\n    /** @dev Get count of transactions. */\n    function getTransactionCount() public view returns(uint256 count) {\n        return transactionArray.length;\n    }\n}",
  "sourcePath": "/Users/justinhamilton/ethereum/arbitration/contracts/TransactionManager.sol",
  "compiler": {
    "name": "solc",
    "version": "0.4.24+commit.e67f0147.Emscripten.clang"
  },
  "schemaVersion": "3.0.0-beta.0",
  "updatedAt": "2018-09-11T03:54:21.346Z"
}