{
  "contractName": "TwoPartyMediatedArbitrationService",
  "abi": [
    {
      "constant": true,
      "inputs": [],
      "name": "timeToPayFee",
      "outputs": [
        {
          "name": "",
          "type": "uint256"
        }
      ],
      "payable": false,
      "stateMutability": "view",
      "type": "function"
    },
    {
      "constant": true,
      "inputs": [
        {
          "name": "",
          "type": "address"
        },
        {
          "name": "",
          "type": "uint256"
        }
      ],
      "name": "disputesMap",
      "outputs": [
        {
          "name": "partyA",
          "type": "address"
        },
        {
          "name": "partyB",
          "type": "address"
        },
        {
          "name": "trustedMediator",
          "type": "address"
        },
        {
          "name": "partyAPaid",
          "type": "bool"
        },
        {
          "name": "partyBPaid",
          "type": "bool"
        },
        {
          "name": "choices",
          "type": "uint256"
        },
        {
          "name": "ruling",
          "type": "uint256"
        },
        {
          "name": "status",
          "type": "uint8"
        },
        {
          "name": "feePerParty",
          "type": "uint256"
        },
        {
          "name": "timeout",
          "type": "uint256"
        }
      ],
      "payable": false,
      "stateMutability": "view",
      "type": "function"
    },
    {
      "constant": true,
      "inputs": [],
      "name": "owner",
      "outputs": [
        {
          "name": "",
          "type": "address"
        }
      ],
      "payable": false,
      "stateMutability": "view",
      "type": "function"
    },
    {
      "inputs": [],
      "payable": false,
      "stateMutability": "nonpayable",
      "type": "constructor"
    },
    {
      "payable": true,
      "stateMutability": "payable",
      "type": "fallback"
    },
    {
      "anonymous": false,
      "inputs": [
        {
          "indexed": true,
          "name": "_arbitrated",
          "type": "address"
        },
        {
          "indexed": true,
          "name": "_disputeID",
          "type": "uint256"
        },
        {
          "indexed": false,
          "name": "_feesOwed",
          "type": "bool"
        }
      ],
      "name": "DisputeCreated",
      "type": "event"
    },
    {
      "anonymous": false,
      "inputs": [
        {
          "indexed": true,
          "name": "_arbitrated",
          "type": "address"
        },
        {
          "indexed": true,
          "name": "_disputeID",
          "type": "uint256"
        }
      ],
      "name": "ArbitrationFeesPaid",
      "type": "event"
    },
    {
      "anonymous": false,
      "inputs": [
        {
          "indexed": true,
          "name": "_arbitrated",
          "type": "address"
        },
        {
          "indexed": true,
          "name": "_disputeID",
          "type": "uint256"
        },
        {
          "indexed": false,
          "name": "_ruling",
          "type": "uint32"
        },
        {
          "indexed": false,
          "name": "_appealable",
          "type": "bool"
        }
      ],
      "name": "Ruling",
      "type": "event"
    },
    {
      "anonymous": false,
      "inputs": [
        {
          "indexed": true,
          "name": "_arbitrated",
          "type": "address"
        },
        {
          "indexed": true,
          "name": "_disputeID",
          "type": "uint256"
        },
        {
          "indexed": false,
          "name": "_party",
          "type": "address"
        },
        {
          "indexed": false,
          "name": "_evidenceJSON",
          "type": "string"
        }
      ],
      "name": "Evidence",
      "type": "event"
    },
    {
      "constant": false,
      "inputs": [
        {
          "name": "_fee",
          "type": "uint256"
        }
      ],
      "name": "setDefaultFee",
      "outputs": [],
      "payable": false,
      "stateMutability": "nonpayable",
      "type": "function"
    },
    {
      "constant": false,
      "inputs": [
        {
          "name": "_time",
          "type": "uint256"
        }
      ],
      "name": "setTimeToPayFee",
      "outputs": [],
      "payable": false,
      "stateMutability": "nonpayable",
      "type": "function"
    },
    {
      "constant": false,
      "inputs": [
        {
          "name": "_fee",
          "type": "uint256"
        }
      ],
      "name": "setCustomFee",
      "outputs": [],
      "payable": false,
      "stateMutability": "nonpayable",
      "type": "function"
    },
    {
      "constant": true,
      "inputs": [
        {
          "name": "_trustedMediator",
          "type": "address"
        }
      ],
      "name": "arbitrationFeePerParty",
      "outputs": [
        {
          "name": "fee",
          "type": "uint256"
        }
      ],
      "payable": false,
      "stateMutability": "view",
      "type": "function"
    },
    {
      "constant": true,
      "inputs": [
        {
          "name": "_disputeID",
          "type": "uint256"
        },
        {
          "name": "_choices",
          "type": "uint32"
        },
        {
          "name": "_parties",
          "type": "address[]"
        },
        {
          "name": "_extraData",
          "type": "uint256[]"
        }
      ],
      "name": "upfrontCost",
      "outputs": [
        {
          "name": "fee",
          "type": "uint256"
        }
      ],
      "payable": false,
      "stateMutability": "view",
      "type": "function"
    },
    {
      "constant": true,
      "inputs": [
        {
          "name": "_arbitrated",
          "type": "address"
        },
        {
          "name": "_disputeID",
          "type": "uint256"
        }
      ],
      "name": "getFeesOwed",
      "outputs": [
        {
          "name": "partyAOwes",
          "type": "uint256"
        },
        {
          "name": "partyBOwes",
          "type": "uint256"
        },
        {
          "name": "timeout",
          "type": "uint256"
        }
      ],
      "payable": false,
      "stateMutability": "view",
      "type": "function"
    },
    {
      "constant": false,
      "inputs": [
        {
          "name": "_arbitrated",
          "type": "address"
        },
        {
          "name": "_disputeID",
          "type": "uint256"
        }
      ],
      "name": "payFee",
      "outputs": [],
      "payable": true,
      "stateMutability": "payable",
      "type": "function"
    },
    {
      "constant": false,
      "inputs": [
        {
          "name": "_disputeID",
          "type": "uint256"
        },
        {
          "name": "_choices",
          "type": "uint32"
        },
        {
          "name": "_parties",
          "type": "address[]"
        },
        {
          "name": "_extraData",
          "type": "uint256[]"
        }
      ],
      "name": "createDispute",
      "outputs": [],
      "payable": true,
      "stateMutability": "payable",
      "type": "function"
    },
    {
      "constant": false,
      "inputs": [
        {
          "name": "_arbitrated",
          "type": "address"
        },
        {
          "name": "_disputeID",
          "type": "uint256"
        },
        {
          "name": "_ruling",
          "type": "uint32"
        }
      ],
      "name": "giveRuling",
      "outputs": [],
      "payable": false,
      "stateMutability": "nonpayable",
      "type": "function"
    },
    {
      "constant": false,
      "inputs": [
        {
          "name": "_arbitrated",
          "type": "address"
        },
        {
          "name": "_disputeID",
          "type": "uint256"
        },
        {
          "name": "_ruling",
          "type": "uint32"
        }
      ],
      "name": "giveTimeoutRuling",
      "outputs": [],
      "payable": false,
      "stateMutability": "nonpayable",
      "type": "function"
    },
    {
      "constant": true,
      "inputs": [
        {
          "name": "_arbitrated",
          "type": "address"
        },
        {
          "name": "_disputeID",
          "type": "uint256"
        }
      ],
      "name": "disputeStatus",
      "outputs": [
        {
          "name": "status",
          "type": "uint8"
        },
        {
          "name": "ruling",
          "type": "uint256"
        }
      ],
      "payable": false,
      "stateMutability": "view",
      "type": "function"
    },
    {
      "constant": false,
      "inputs": [
        {
          "name": "_arbitrated",
          "type": "address"
        },
        {
          "name": "_disputeID",
          "type": "uint256"
        },
        {
          "name": "_evidenceJSON",
          "type": "string"
        }
      ],
      "name": "submitEvidence",
      "outputs": [],
      "payable": false,
      "stateMutability": "nonpayable",
      "type": "function"
    }
  ],
  "bytecode": "0x608060405260008054600160a060020a0319163317905566b1a2bc2ec5000060015562093a8060025534801561003457600080fd5b5061187d806100446000396000f3006080604052600436106100da5763ffffffff7c01000000000000000000000000000000000000000000000000000000006000350416630218e43a811461012a57806306791f6e14610159578063114733201461018057806324f820f5146101cf57806327754b24146101e7578063285cff3f146102845780633a84cc33146102b15780635e021908146102d257806372746eaf1461033b57806372bc6e7b146103525780637ad319651461036a5780638da5cb5b146104075780638f798fe714610438578063bc65b03b146104c8578063c93a6c841461050a575b6040805160e560020a62461bcd02815260206004820152601960248201527f496e76616c69642063616c6c20746f20636f6e74726163742e00000000000000604482015290519081900360640190fd5b34801561013657600080fd5b50610157600160a060020a036004351660243563ffffffff60443516610522565b005b34801561016557600080fd5b5061016e61081f565b60408051918252519081900360200190f35b34801561018c57600080fd5b506101a4600160a060020a0360043516602435610825565b604051808360038111156101b457fe5b60ff1681526020018281526020019250505060405180910390f35b3480156101db57600080fd5b5061015760043561085d565b3480156101f357600080fd5b50604080516020600460443581810135838102808601850190965280855261016e958335956024803563ffffffff1696369695606495939492019291829185019084908082843750506040805187358901803560208181028481018201909552818452989b9a9989019892975090820195509350839250850190849080828437509497506108899650505050505050565b34801561029057600080fd5b50610157600160a060020a036004351660243563ffffffff60443516610893565b3480156102bd57600080fd5b5061016e600160a060020a0360043516610c01565b3480156102de57600080fd5b50604080516020600460443581810135601f8101849004840285018401909552848452610157948235600160a060020a0316946024803595369594606494920191908190840183828082843750949750610c589650505050505050565b610157600160a060020a0360043516602435610e6b565b34801561035e57600080fd5b5061015760043561112d565b34801561037657600080fd5b5061038e600160a060020a03600435166024356111ba565b60408051600160a060020a03808d1682528b811660208301528a16918101919091528715156060820152861515608082015260a0810186905260c0810185905260e081018460038111156103de57fe5b60ff1681526020018381526020018281526020019a505050505050505050505060405180910390f35b34801561041357600080fd5b5061041c61124c565b60408051600160a060020a039092168252519081900360200190f35b6040805160206004604435818101358381028086018501909652808552610157958335956024803563ffffffff1696369695606495939492019291829185019084908082843750506040805187358901803560208181028481018201909552818452989b9a99890198929750908201955093508392508501908490808284375094975061125b9650505050505050565b3480156104d457600080fd5b506104ec600160a060020a0360043516602435611727565b60408051938452602084019290925282820152519081900360600190f35b34801561051657600080fd5b506101576004356117c4565b600160a060020a0383811660009081526005602090815260408083208684529091529020600281015490911633146105ca576040805160e560020a62461bcd02815260206004820152602d60248201527f4f6e6c792074727573746564206d65646961746f722063616e2063616c6c207460448201527f6869732066756e6374696f6e2e00000000000000000000000000000000000000606482015290519081900360840190fd5b60008263ffffffff161180156105ea575080600301548263ffffffff1611155b1515610666576040805160e560020a62461bcd02815260206004820152603660248201527f52756c696e67206d757374206e6f74206265203020616e64206c65737320746860448201527f616e206f7220657175616c20746f2063686f6963657300000000000000000000606482015290519081900360840190fd5b6001600582015460ff16600381111561067b57fe5b146106f5576040805160e560020a62461bcd028152602060048201526024808201527f43616e206f6e6c792072756c652069662077616974696e6720666f722072756c60448201527f696e672e00000000000000000000000000000000000000000000000000000000606482015290519081900360840190fd5b63ffffffff82166004820155600581018054600360ff199091161790556006810154604051339160020280156108fc02916000818181858888f19350505050158015610745573d6000803e3d6000fd5b50604080517f86fc1e4b0000000000000000000000000000000000000000000000000000000081526004810185905263ffffffff841660248201529051600160a060020a038616916386fc1e4b91604480830192600092919082900301818387803b1580156107b357600080fd5b505af11580156107c7573d6000803e3d6000fd5b50506040805163ffffffff86168152600060208201528151879450600160a060020a03891693507fc3fdef16dcc2f9cc3e5b0515e1690860b45b7acd0b26b90920b77deeffcf65c8929181900390910190a350505050565b60025481565b600160a060020a039190911660009081526005602081815260408084209484529390529190209081015460049091015460ff90911691565b33600090815260036020908152604080832084905560049091529020805460ff19169115919091179055565b6000949350505050565b600160a060020a038316600090815260056020908152604080832085845290915281209063ffffffff83161180156108d5575080600301548263ffffffff1611155b1515610951576040805160e560020a62461bcd02815260206004820152603660248201527f52756c696e67206d757374206e6f74206265203020616e64206c65737320746860448201527f616e206f7220657175616c20746f2063686f6963657300000000000000000000606482015290519081900360840190fd5b6000600582015460ff16600381111561096657fe5b146109e1576040805160e560020a62461bcd02815260206004820152602a60248201527f43616e206f6e6c7920686176652074696d656f75742072756c696e672069662060448201527f66656573206f7765642e00000000000000000000000000000000000000000000606482015290519081900360840190fd5b6007810154158015906109f75750806007015442115b1515610a73576040805160e560020a62461bcd02815260206004820152602d60248201527f54696d657374616d70206d757374206265206c61746572207468616e2064697360448201527f707574652074696d656f75742e00000000000000000000000000000000000000606482015290519081900360840190fd5b8054600160a060020a031633148015610aa85750600281015474010000000000000000000000000000000000000000900460ff165b8015610ad2575060028101547501000000000000000000000000000000000000000000900460ff16155b80610b3a57506001810154600160a060020a031633148015610b11575060028101547501000000000000000000000000000000000000000000900460ff165b8015610b3a5750600281015474010000000000000000000000000000000000000000900460ff16155b1515610bb6576040805160e560020a62461bcd02815260206004820152603e60248201527f52657175697265732073656e6465722068617320706169642066656520616e6460448201527f206f7468657220706172747920686173206e6f742070616964206665652e0000606482015290519081900360840190fd5b63ffffffff8216600482015560058101805460ff19166003179055600681015460405133916108fc811502916000818181858888f19350505050158015610745573d6000803e3d6000fd5b600160a060020a0381166000908152600360205260409020546002900480158015610c455750600160a060020a03821660009081526004602052604090205460ff16155b15610c535750600154600290045b919050565b600160a060020a03838116600090815260056020908152604080832086845290915290208054909116331480610c9a57506001810154600160a060020a031633145b1515610d16576040805160e560020a62461bcd02815260206004820152602260248201527f53656e646572206d7573742062652070617274792041206f722070617274792060448201527f422e000000000000000000000000000000000000000000000000000000000000606482015290519081900360840190fd5b6003600582015460ff166003811115610d2b57fe5b1415610da7576040805160e560020a62461bcd02815260206004820152602b60248201527f43616e6e6f74207375626d69742065766964656e63652077697468206375727260448201527f656e74207374617475732e000000000000000000000000000000000000000000606482015290519081900360840190fd5b8284600160a060020a03167fdccf2f8b2cc26eafcd61905cba744cff4b81d14740725f6376390dc6298a6a3c33856040518083600160a060020a0316600160a060020a0316815260200180602001828103825283818151815260200191508051906020019080838360005b83811015610e2a578181015183820152602001610e12565b50505050905090810190601f168015610e575780820380516001836020036101000a031916815260200191505b50935050505060405180910390a350505050565b600160a060020a0382811660009081526005602090815260408083208584529091529020805490911633148015610ebf5750600281015474010000000000000000000000000000000000000000900460ff16155b8015610ece5750806006015434145b80610f1d57506001810154600160a060020a031633148015610f0e575060028101547501000000000000000000000000000000000000000000900460ff16155b8015610f1d5750806006015434145b1515610f73576040805160e560020a62461bcd02815260206004820152601860248201527f4d7573742070617920657861637420666565206f7765642e0000000000000000604482015290519081900360640190fd5b6000600582015460ff166003811115610f8857fe5b14611003576040805160e560020a62461bcd02815260206004820152602860248201527f43616e206f6e6c7920706179206665657320696620737461747573206973204660448201527f6565734f7765642e000000000000000000000000000000000000000000000000606482015290519081900360840190fd5b8054600160a060020a03163314156110515760028101805474ff000000000000000000000000000000000000000019167401000000000000000000000000000000000000000017905561108b565b60028101805475ff000000000000000000000000000000000000000000191675010000000000000000000000000000000000000000001790555b600280544201600783015581015474010000000000000000000000000000000000000000900460ff1680156110dd575060028101547501000000000000000000000000000000000000000000900460ff165b156111285760058101805460ff191660011790556040518290600160a060020a038516907fd6d59cc001e42a5a40de935528298b12c717a533c61912e794c24654cf13b33390600090a35b505050565b600054600160a060020a031633146111b5576040805160e560020a62461bcd02815260206004820152602260248201527f4f6e6c79206f776e65722063616e2063616c6c20746869732066756e6374696f60448201527f6e2e000000000000000000000000000000000000000000000000000000000000606482015290519081900360840190fd5b600255565b6005602081815260009384526040808520909152918352912080546001820154600283015460038401546004850154958501546006860154600790960154600160a060020a0395861697948616969584169560ff74010000000000000000000000000000000000000000860481169675010000000000000000000000000000000000000000009096048116959316918a565b600054600160a060020a031681565b336000908152600560209081526040808320878452909152812060030154156112f4576040805160e560020a62461bcd02815260206004820152602660248201527f4469737075746520666f72206964206d757374206e6f7420616c72656164792060448201527f65786973742e0000000000000000000000000000000000000000000000000000606482015290519081900360840190fd5b600263ffffffff85161015611379576040805160e560020a62461bcd02815260206004820152602c60248201527f4d7573742068617665206174206c656173742074776f2063686f69636573207460448201527f6f206172626974726174652e0000000000000000000000000000000000000000606482015290519081900360840190fd5b825160009084908290811061138a57fe5b90602001906020020151600160a060020a0316141580156113ce57508251600090849060019081106113b857fe5b90602001906020020151600160a060020a031614155b80156113fd57508251600090849060029081106113e757fe5b90602001906020020151600160a060020a031614155b1515611479576040805160e560020a62461bcd02815260206004820152602260248201527f506172746965732063616e6e6f74206265206e756c6c206f72206d697373696e60448201527f672e000000000000000000000000000000000000000000000000000000000000606482015290519081900360840190fd5b61149a83600281518110151561148b57fe5b90602001906020020151610c01565b9050610140604051908101604052808460008151811015156114b857fe5b90602001906020020151600160a060020a031681526020018460018151811015156114df57fe5b90602001906020020151600160a060020a0316815260200184600281518110151561150657fe5b6020908102909101810151600160a060020a0316825283159082018190526040820181905263ffffffff871660608301526000608083015260a09091019061154f576000611552565b60015b600381111561155d57fe5b815260208082018490526000604092830181905233815260058083528382208a835283529083902084518154600160a060020a0391821673ffffffffffffffffffffffffffffffffffffffff1991821617835593860151600180840180549284169287169290921790915594860151600283018054606089015160808a0151151575010000000000000000000000000000000000000000000275ff00000000000000000000000000000000000000000019911515740100000000000000000000000000000000000000000274ff0000000000000000000000000000000000000000199590961692909816919091179290921692909217169390931790925560a084015160038084019190915560c0850151600484015560e0850151918301805493949293909260ff1990911691849081111561169557fe5b02179055506101008201516006820155610120909101516007909101556040805182151581529051869133917f898bcfa449e0a0e55eb9752e15e691ddd11c6230db46197b7cd309a3a02ba09d9181900360200190a380151561172057604051859033907fd6d59cc001e42a5a40de935528298b12c717a533c61912e794c24654cf13b33390600090a35b5050505050565b600160a060020a0382166000908152600560209081526040808320848452909152812060028101548291829174010000000000000000000000000000000000000000900460ff1661177c57806006015461177f565b60005b60028201547501000000000000000000000000000000000000000000900460ff166117ae5781600601546117b1565b60005b8260070154935093509350509250925092565b600054600160a060020a0316331461184c576040805160e560020a62461bcd02815260206004820152602260248201527f4f6e6c79206f776e65722063616e2063616c6c20746869732066756e6374696f60448201527f6e2e000000000000000000000000000000000000000000000000000000000000606482015290519081900360840190fd5b6001555600a165627a7a723058203412b389dd5948d55cf329ac6d00634279c8a5ba808ac0cb8b6cae67e836d26c0029",
  "source": "pragma solidity ^0.4.0;\nimport \"./ArbitrationService.sol\";\n\ncontract TwoPartyMediatedArbitrationService is ArbitrationService {\n    /* Contract owner. */\n    address public owner = msg.sender;\n\n    /* Default arbitration fee. */\n    uint256 private defaultArbitrationFee = 50 finney;\n\n    /* Time to pay fee. */\n    uint256 public timeToPayFee = 7 days;\n\n    /* Mapping custom arbitration fee by mediator. */\n    mapping(address => uint256) internal customArbitrationFeeMap;\n\n    /* Mapping no arbitration fee by mediator. */\n    mapping(address => bool) internal noArbitrationFeeMap;\n\n    /* Disputes tracked by this arbitration contract.  Keyed off Arbitrable contract address and dispute ID. */    \n    mapping(address => mapping(uint256 => DisputeStruct)) public disputesMap;\n\n    /* Dispute struct for two parties with trusted mediator. */\n    struct DisputeStruct {\n        address partyA;\n        address partyB;\n        address trustedMediator;\n        bool partyAPaid;\n        bool partyBPaid;\n        uint256 choices;\n        uint256 ruling;\n        DisputeStatus status;\n        uint256 feePerParty;\n        uint256 timeout;\n    }\n\n    /* Constructor. */\n    constructor() public {\n    }\n\n    /* Fallback function. Added so ether sent to this contract is reverted. */\n    function() public payable {\n        revert(\"Invalid call to contract.\");\n    }\n    \n    /** @dev Set the default arbitration fee. Only callable by the owner.\n     *  @param _fee Default amount to be paid for arbitration.\n     */\n    function setDefaultFee(uint256 _fee) public {\n        require(msg.sender == owner, \"Only owner can call this function.\"); \n        defaultArbitrationFee = _fee;\n    }\n    \n    /** @dev Set the time to pay arbitration fee. Only callable by the owner.\n     *  @param _time Time to pay arbitration fee after other party.\n     */\n    function setTimeToPayFee(uint256 _time) public {\n        require(msg.sender == owner, \"Only owner can call this function.\"); \n        timeToPayFee = _time;\n    }\n\n    /** @dev Set custom arbitration fee for a specific mediator.\n     *  @param _fee Amount to be paid for arbitration.\n     */\n    function setCustomFee(uint256 _fee) public {\n        customArbitrationFeeMap[msg.sender] = _fee;\n        noArbitrationFeeMap[msg.sender] = (_fee == 0);\n    }\n\n    /** @dev Cost of arbitration charged by a mediator.\n     *  @param _trustedMediator The trusted mediator\n     *  @return fee Amount to be paid.\n     */\n    function arbitrationFeePerParty(address _trustedMediator) public view returns(uint256 fee) {\n        /* Arbitration fee is split between two parties. */\n        fee = customArbitrationFeeMap[_trustedMediator] / 2;\n\n        if (fee == 0 && !noArbitrationFeeMap[_trustedMediator]) {\n            fee = defaultArbitrationFee / 2;\n        }\n\n        return fee;\n    }\n\n    /** @dev Upfront cost of arbitration that needs to be paid when creating dispute.  Recommended not to change this often.\n     *  Can be 0 since Arbitrator contract may also ask parties to pay additional fees.\n     *  @param _disputeID ID to track dispute given by the arbitrable contract.\n     *  @param _choices Amount of choices the arbitration contract can make in this dispute. When ruling ruling<=choices.\n     *  @param _parties Participants in the dispute.  Can be parties with an interest in the ruling, or mediators.\n     *  @param _extraData Can be used to give additional info on the dispute to be created.\n     *  @return fee Amount to be paid.\n     */\n    function upfrontCost(uint256 _disputeID, uint32 _choices, address[] _parties, uint256[] _extraData) public view returns(uint256 fee) {\n        return uint256(0);\n    }\n\n    /** @dev Returns fees owed by each party and fee payment timeout.\n     *  @param _arbitrated The contract which created the dispute.\n     *  @param _disputeID ID of the dispute.\n     *  @return partyAOwes The amount owed by party A.\n     *  @return partyBOwes The amount owed by party B.\n     *  @return timeout Timestamp when one party can choose ruling if other party hasn't paid fees.\n     */\n    function getFeesOwed(Arbitrated _arbitrated, uint256 _disputeID) public view returns(uint256 partyAOwes, uint256 partyBOwes, uint256 timeout) {\n        DisputeStruct storage dispute = disputesMap[_arbitrated][_disputeID];\n        return (\n            dispute.partyAPaid ? 0 : dispute.feePerParty,\n            dispute.partyBPaid ? 0 : dispute.feePerParty,\n            dispute.timeout\n        );\n    }\n\n    /** @dev Pay arbitration fee owed for dispute mediation.\n     *  @param _arbitrated The contract which created the dispute.\n     *  @param _disputeID ID of the dispute.\n     */\n    function payFee(Arbitrated _arbitrated, uint256 _disputeID) public payable {\n        DisputeStruct storage dispute = disputesMap[_arbitrated][_disputeID];\n\n        require(\n            (msg.sender == dispute.partyA && !dispute.partyAPaid && msg.value == dispute.feePerParty) || \n            (msg.sender == dispute.partyB && !dispute.partyBPaid && msg.value == dispute.feePerParty),\n            \"Must pay exact fee owed.\"\n        );\n\n        require(\n            dispute.status == DisputeStatus.FeesOwed,\n            \"Can only pay fees if status is FeesOwed.\"\n        );\n\n        if (msg.sender == dispute.partyA) {\n            dispute.partyAPaid = true;\n        }\n        else {\n            dispute.partyBPaid = true;\n        }\n\n        dispute.timeout = block.timestamp + timeToPayFee;\n\n        if (dispute.partyAPaid && dispute.partyBPaid) {\n            dispute.status = DisputeStatus.Waiting;\n            emit ArbitrationFeesPaid(_arbitrated, _disputeID);\n        }\n    }\n\n    /** @dev Create a dispute. Must be called by the arbitrable contract.\n     *  Must be paid at least upfrontCost().\n     *  @param _disputeID ID to track dispute given by the arbitrable contract.\n     *  @param _choices Amount of choices the arbitration contract can make in this dispute. When ruling ruling<=choices.\n     *  @param _parties Participants in the dispute.  Can be parties with an interest in the ruling, or mediators.\n     *  @param _extraData Can be used to give additional info on the dispute to be created.\n     */\n    function createDispute(uint256 _disputeID, uint32 _choices, address[] _parties, uint256[] _extraData) public payable {\n        require(\n            disputesMap[msg.sender][_disputeID].choices == 0, \n            \"Dispute for id must not already exist.\"\n        );\n\n        require(\n            _choices >= 2,\n            \"Must have at least two choices to arbitrate.\"\n        );\n\n        require(\n            _parties[0] != address(0x0) && _parties[1] != address(0x0) && _parties[2] != address(0x0),\n            \"Parties cannot be null or missing.\"\n        );\n        \n        /* Get fee charged by trusted mediator (where _parties[2] is address of mediator). */\n        uint256 feePerParty = arbitrationFeePerParty(_parties[2]);\n\n        disputesMap[msg.sender][_disputeID] = DisputeStruct(\n            _parties[0], \n            _parties[1], \n            _parties[2], \n            feePerParty == 0, \n            feePerParty == 0, \n            _choices, \n            0, \n            feePerParty == 0 ? DisputeStatus.Waiting : DisputeStatus.FeesOwed,\n            feePerParty,\n            0\n        );\n\n        emit DisputeCreated(Arbitrated(msg.sender), _disputeID, feePerParty != 0);\n\n        if (feePerParty == 0) {\n            emit ArbitrationFeesPaid(Arbitrated(msg.sender), _disputeID);\n        }\n    }\n\n    /** @dev Give a ruling by trusted mediator. UNTRUSTED.\n     *  @param _arbitrated The contract which created the dispute.\n     *  @param _disputeID ID of the dispute to rule.\n     *  @param _ruling Ruling given by the arbitration contract. Note that 0 means \"Not able/wanting to make a decision\".\n     */\n    function giveRuling(Arbitrated _arbitrated, uint256 _disputeID, uint32 _ruling) public {\n        DisputeStruct storage dispute = disputesMap[_arbitrated][_disputeID];\n\n        require(\n            msg.sender == dispute.trustedMediator, \n            \"Only trusted mediator can call this function.\"\n        );\n\n        require(\n            _ruling > 0 && _ruling <= dispute.choices, \n            \"Ruling must not be 0 and less than or equal to choices\"\n        );\n\n        require(\n            dispute.status == DisputeStatus.Waiting,\n            \"Can only rule if waiting for ruling.\"\n        );\n\n        dispute.ruling = _ruling;\n        dispute.status = DisputeStatus.Solved;\n        \n        /* Transfer arbitration see to mediator.  Each party pays half of the total arbitration fee. */\n        msg.sender.transfer(dispute.feePerParty * 2);\n\n        /* DANGEROUS external call.  Issue ruling to arbitrated contract. */\n        _arbitrated.rule(_disputeID, _ruling);\n\n        emit Ruling(_arbitrated, _disputeID, _ruling, false);\n    }\n\n    /** @dev Give a ruling due to non-payment of fees timeout. UNTRUSTED.\n     *  @param _arbitrated The contract which created the dispute.\n     *  @param _disputeID ID of the dispute to rule.\n     *  @param _ruling Ruling given by the arbitration contract. Note that 0 means \"Not able/wanting to make a decision\".\n     */\n    function giveTimeoutRuling(Arbitrated _arbitrated, uint256 _disputeID, uint32 _ruling) public {\n        DisputeStruct storage dispute = disputesMap[_arbitrated][_disputeID];\n\n        require(\n            _ruling > 0 && _ruling <= dispute.choices, \n            \"Ruling must not be 0 and less than or equal to choices\"\n        );\n\n        require(\n            dispute.status == DisputeStatus.FeesOwed,\n            \"Can only have timeout ruling if fees owed.\"\n        );\n\n        require(\n            dispute.timeout != 0 && block.timestamp > dispute.timeout,\n            \"Timestamp must be later than dispute timeout.\"\n        );\n\n        require(\n            (msg.sender == dispute.partyA && dispute.partyAPaid && !dispute.partyBPaid) ||\n            (msg.sender == dispute.partyB && dispute.partyBPaid && !dispute.partyAPaid),\n            \"Requires sender has paid fee and other party has not paid fee.\"\n        );\n\n        dispute.ruling = _ruling;\n        dispute.status = DisputeStatus.Solved;\n\n        /* Refund arbitration fee if there's a timeout. */\n        msg.sender.transfer(dispute.feePerParty);\n\n        /* DANGEROUS external call.  Issue ruling to arbitrated contract. */\n        _arbitrated.rule(_disputeID, _ruling);\n\n        emit Ruling(_arbitrated, _disputeID, _ruling, false);\n    }\n\n    /** @dev Return the status and ruling of a dispute.\n     *  @param _arbitrated The contract which created the dispute.\n     *  @param _disputeID ID of the dispute.\n     *  @return status The status of the dispute.\n     *  @return ruling The ruling which would or has been given.\n     */\n    function disputeStatus(Arbitrated _arbitrated, uint256 _disputeID) public view returns(DisputeStatus status, uint256 ruling) {\n        DisputeStruct storage dispute = disputesMap[_arbitrated][_disputeID];\n        return (dispute.status, dispute.ruling);\n    }\n\n    /** @dev Submit a reference to evidence.  Generates an Evidence EVENT.\n     *  @param _arbitrated The contract which created the dispute.\n     *  @param _disputeID ID of the dispute.\n     *  @param _evidenceJSON A URI to the evidence JSON file whose name should be its keccak256 hash followed by .json.\n     */\n    function submitEvidence(Arbitrated _arbitrated, uint256 _disputeID, string _evidenceJSON) public {\n        DisputeStruct storage dispute = disputesMap[_arbitrated][_disputeID];\n\n        require(\n            msg.sender == dispute.partyA || \n            msg.sender == dispute.partyB, \n            \"Sender must be party A or party B.\"\n        );\n\n        require(\n            dispute.status != DisputeStatus.Solved,\n            \"Cannot submit evidence with current status.\"\n        );\n\n        emit Evidence(_arbitrated, _disputeID, msg.sender, _evidenceJSON);\n    }\n}",
  "sourcePath": "/Users/justinhamilton/ethereum/arbitration/contracts/TwoPartyMediatedArbitrationService.sol",
  "compiler": {
    "name": "solc",
    "version": "0.4.24+commit.e67f0147.Emscripten.clang"
  },
  "schemaVersion": "3.0.0-beta.0",
  "updatedAt": "2018-09-10T09:51:15.467Z"
}